:020000040800F2
:1000000070070020D5010008151A00083D180008E7
:10001000111A0008CD030008891F00080000000025
:100020000000000000000000000000001D1A000891
:10003000D103000800000000191A0008211A000866
:10004000EF010008EF010008EF010008EF010008D0
:10005000EF010008EF010008EF010008EF010008C0
:10006000EF010008EF010008EF010008EF010008B0
:10007000EF010008EF010008EF010008EF010008A0
:10008000EF010008EF010008EF010008EF01000890
:1000900000000000EF010008EF010008EF01000878
:1000A000EF010008EF010008EF010008EF01000870
:1000B000EF010008EF010008EF010008EF01000860
:1000C000EF010008EF010008EF010008EF01000850
:1000D000EF010008EF010008EF010008EF01000840
:1000E000EF010008EF010008EF010008EF01000830
:1000F000EF0100080000000000000000EF01000810
:10010000EF010008EF010008EF010008EF0100080F
:10011000EF010008EF010008EF010008EF010008FF
:10012000EF010008EF010008EF010008EF010008EF
:10013000EF010008EF01000800F002F800F03AF8C3
:100140000AA090E8000C82448344AAF10107DA4532
:1001500001D100F02FF8AFF2090EBAE80F0013F04A
:10016000010F18BFFB1A43F001031847B41F00002A
:10017000D41F0000103A24BF78C878C1FAD85207BB
:1001800024BF30C830C144BF04680C607047000011
:100190000023002400250026103A28BF78C1FBD890
:1001A000520728BF30C148BF0B6070471FB51FBD45
:1001B00010B510BD00F0D0F81146FFF7F7FF01F0C1
:1001C000E5FE00F0EEF803B4FFF7F2FF03BC00F029
:1001D000F5F800000948804709480047FEE7FEE7B8
:1001E000FEE7FEE7FEE7FEE7FEE7FEE7FEE7FEE7E7
:1001F00004480549054A064B70470000251A0008C7
:1002000039010008700100207007002070030020F1
:100210007003002053EA020C00F069802DE9F04BD6
:100220004FF00006002B1FBFB3FA83F503FA05F465
:1002300024FA05F65E4012BF1643B2FA82F502FABE
:1002400005F4C5F120051EBF22FA05FC44EA0C04A2
:10025000203556EA044C4FEA144418BF641C4FF092
:1002600000084FF00009904271EB030C39D30029CC
:1002700019BFB1FA81F701FA07F6B0FA80F700FA70
:1002800007F6C7F120071EBF20FA07FC46EA0C0656
:100290002037B6FBF4FCA7EB0507103F07F01F0B58
:1002A000CBF120062CFA06F60CFA0BFB44BFB34642
:1002B0000026202FA4BF5E464FF0000B5BEA060C21
:1002C00008BF4FF0010B19EB0B0948EB0608ABFB1D
:1002D000027C06FB02CC0BFB03CCC01B71EB0C01B8
:1002E000C1E70B46024641464846BDE8F08B13B5D0
:1002F000084318BF4FF0FF300146AFF30080BDE860
:100300001C4070474FF0000200B5134694469646D5
:10031000203922BFA0E80C50A0E80C50B1F1200118
:10032000BFF4F7AF090728BFA0E80C5048BF0CC0C6
:100330005DF804EB890028BF40F8042B08BF704724
:1003400048BF20F8022B11F0804F18BF00F8012B96
:100350007047704770477047754600F02BF8AE46FF
:1003600005006946534620F00700854618B020B5C1
:10037000FFF73EFFBDE820404FF000064FF00007BA
:100380004FF000084FF0000BAC46ACE8C009ACE8F9
:10039000C009ACE8C009ACE8C00921F007018D46EE
:1003A000704710B50446AFF300802046BDE810400A
:1003B000FFF709BF004870471000002001491820CE
:1003C000ABBEFEE72600020070470000FEE700001B
:1003D00070470000EFF3108072B600BFFEE7000028
:1003E0002DE9F04F81B00E68002E00F0C58040F678
:1003F0000003C4F6000398424FF007024FF00003D9
:100400004FF001074FF0000B4FF0000508BF02222C
:1004100000924FE040F20042C4F60002DDF800E036
:10042000904208BF4FF0010E0BF00C060724B440B9
:100430002CEA04040EFA06F60827AA082643C4F29A
:10044000010740F6000C47F82260C5F6000CDCF806
:1004500000204E6842EA0804F70258BF22EA080466
:10046000CCF80040DCF80420B40242EA080758BF88
:1004700022EA0807CCF80470DCF88020F40342EA92
:10048000080758BF22EA0807CCF88070DCF88420FF
:10049000B60342EA080758BF22EA0807CCF884707E
:1004A00001270E68013536FA05F20BF1040B03F152
:1004B000020361D007FA05FE16EA0E08F1D0D1F862
:1004C00004A003220AF0030CACF1010402FA03F6C3
:1004D000012C6FEA06090FD88468CE6804EA090483
:1004E0009E4034438460446824EA0E06CAF3001434
:1004F000AC402643466005E0BCF1030F02D14FF04B
:10050000030C21E0C6688C6806EA09069C40264375
:10051000BCF1020FC66017D16FF0030202EA550664
:1005200006440BF01C020F24D6F820C004FA02FE89
:100530000C692CEA0E0C04FA02F242EA0C02326256
:10054000D1F804A00AF0030C02680CFA03F602EAE0
:10055000090232431AF4403F0260A2D0082725F076
:100560000302C4F2010752F807C0B0F1904F7FF4C4
:1005700051AF4FF0000E57E701B0BDE8F08F00001B
:100580001823002A08BF2823C150704740F2681082
:10059000C2F200000068704740F2000040F26811AB
:1005A000C2F20000C2F2000100780A68104408603C
:1005B0007047000080B5032000F064F800F090FA66
:1005C00040F20801C2F2000108600F2000F008F8B4
:1005D00000281CBF012080BD00F026F8002080BD4F
:1005E00070B540F20006C2F200063178D1B104467F
:1005F00000F076FA31784FF47A72B2FBF1F1B0FB89
:10060000F1F000F0B1FF0F2C4FF0010508D838B918
:100610004FF0FF3021460022002500F007F87460FB
:10062000284670BD012070BD7047000010B54EF621
:100630000C5CCEF2000CDCF80030C3F3022E8EF01E
:100640000704042C28BF0424BEF103034FF0FF3E2F
:100650000EFA04F438BF0023A14399400EFA03F3C5
:100660009A43114300F00F0200F160430901043A7C
:1006700003F564436244002848BF02F10C0319707B
:1006800010BD00004EF60C51CEF200010A684FF684
:10069000FF031A4060F30A2242F0806040F0FD70D0
:1006A0000860704740F20040C5F60000006800F4A2
:1006B000C060704740F20040C5F60000016841F498
:1006C0008071016070470000F0B581B00446807809
:1006D0008826C007C5F6000600F0AC80FFF7EAFFE9
:1006E000FFF754FF054600BFD6F87803C00577D45E
:1006F000FFF74CFF401B0228F6D903202168CA07E8
:1007000000F09D806268336823EA124392B21A4374
:1007100032608A0740F19680A268336823EA124368
:1007200092B21A4332608A0640F18F8022693368A0
:1007300023F440631A4332608A0540F18980226ABB
:1007400033684FF6FF7767EA02073B4043EA02420D
:1007500032604A0540F17F80626A33684FF6FF7766
:1007600067EA02073B4043EA024232600A0575D558
:10077000A26A33684FF6FF7767EA02073B4043EA15
:10078000024232604A066BD5626933686FF47F2794
:1007900067EA12173B4002F47F4243EA02123260DA
:1007A0000A065FD5A26933686FF47F2767EA1217DC
:1007B0003B4002F47F4243EA02123260CA0553D53D
:1007C000E26933686FF47F2767EA12173B4002F44F
:1007D0007F4243EA02123260CA0657D546E000BFA4
:1007E000B168606B01F4407181421ED0B168B2689B
:1007F00021F4407342F48032B260B268890722F477
:1008000080320146B260B3600FD5FFF7BFFE0546E8
:1008100041F28837B068800706D4FFF7B7FE401B67
:10082000B842F7D969E700BF616BB06820F4407047
:100830000843B06000202168CA077FF463AF8A07CD
:100840003FF56AAF8A063FF571AF8A053FF577AF8E
:100850004A053FF581AF0A053FF58AAF4A0693D4B2
:100860000A069FD4CA05ABD4CA060FD5E26833681E
:10087000B2F5807F23F4407343EA0203336005D16D
:1008800056F87C2C42F0807246F87C2C0A0407D57E
:10089000226B336823F0404343EA020333609AB18A
:1008A000490419D5E16A3268B1F1005F22F0405283
:1008B00042EA010232600FD156F87C1C41F48031CB
:1008C00046F87C1C08E000BF56F87C2C42F0807291
:1008D00046F87C2C4904E5D401B0F0BD2DE9F04385
:1008E00081B0002800F0B38044F20008C5F600088B
:1008F0000546D8F800000C4600F00700884215D2E3
:10090000D8F8000020F007002043C8F80000FFF7E7
:100910003DFE0646D8F8000000F00700A04205D0D2
:10092000FFF734FE801B0228F4D95FE0286808270F
:100930008107C5F6000714D5A868396821F0F001D1
:1009400008433860FFF722FE064600BF3868C00340
:1009500006D4FFF71BFE801B0228F7D946E000BF34
:100960002868410617D56869D7F8001121F00F01F2
:1009700041EA1010C7F80001FFF708FE064600BF65
:10098000D7F80001C00305D4FFF700FE801B022842
:10099000F6D92BE02868410713D5E868396821F4B7
:1009A000E06108433860FFF7F1FD064638688003D0
:1009B00006D4FFF7EBFD801B0228F7D916E000BF35
:1009C0002868010717D52869396821F4605141EA80
:1009D000C0003860FFF7DAFD064600BF3868400304
:1009E00008D4FFF7D3FD801B0228F7D9032001B0FC
:1009F000BDE8F0832868C0071ED1D8F8000000F0D9
:100A00000700A04228D9D8F8000020F007002043B2
:100A1000C8F80000FFF7BAFD054600BFD8F800008F
:100A200000F00700A04217D0FFF7B0FD401B0228DE
:100A30004FF00300F2D947E068684FF0B04138B397
:100A4000032845D0022847D10968890323D401200F
:100A500001B0BDE8F08300BF00F08CF839683C229B
:100A600002EA910142F24802C0F60002515840F2F7
:100A70000802B0FBF1F140F20400C2F2000000688D
:100A8000C2F20002116001B0BDE8F043FFF7A8BD5B
:100A900009688907DBD5396821F00301084338600C
:100AA000FFF774FD064641F2883900BF386869686F
:100AB00000F00C00B0EB810F9FD0FFF767FD801BAB
:100AC00048454FF00300F1D901B0BDE8F08300BF05
:100AD00009688901BBD5DEE709684905B7D5DAE7BA
:100AE00080B500F047F80821C5F6000109683C22EE
:100AF00002EA910142F24802C0F600025158B0FBEE
:100B0000F1F080BD80B500F035F80821C5F6000190
:100B10000A683C2303EA920242F24803C0F600034B
:100B20009A580968B0FBF2F042F28802C1F3022140
:100B3000C0F6000252F82110C84080BD80B500F018
:100B400019F80821C5F600010A683C2303EA92025D
:100B500042F24803C0F600039A580968B0FBF2F06D
:100B600042F28802C1F3C221C0F6000252F82110FD
:100B7000C84080BD0C21C5F6000151F8040C10F0EE
:100B80000C02086805D00C2A16D100F003000128D9
:100B900012D14FF0B040036800681B0700F0080056
:100BA00006D4D8B9D1F88800C0F3032021E000BFF3
:100BB000D0B9D1F8880014E042F20040042AC0F213
:100BC000F40022D0082A1FD14FF0B0421268D2029E
:100BD0005CBF44F60000C0F2E81016E04FF0B040F1
:100BE0000068002005E000BF4FF0B0400068C0F38F
:100BF000031042F2A803C0F6000353F82030002A85
:100C0000184618BF002001E00020002351F8042CF2
:100C100002F00C020C2A18BF7047086800F00302AB
:100C200042F20040022AC0F2F4000AD0032A09D19D
:100C30004FF0B0421268D2025CBF44F60000C0F22E
:100C4000E810034608680A68C0F30620C2F30212DF
:100C5000584301320968B0FBF2F0012202EB5171F6
:100C6000B0FBF1F0704700002DE9F04F81B0002893
:100C700000F0188340F2900B0446C5F6000B5BF8B9
:100C8000880C5BF8841C227800F00C08900601F0B8
:100C9000030A27D42078C0075AD0B8F1080F53D0E0
:100CA000B8F10C0F08BFBAF1030F4DD04FF0B040B0
:100CB000016821F48012D4E901131A43B1F5803F91
:100CC000026009D0B1F5041F40F034824FF0B0410A
:100CD0000A6842F400120A60016841F48031016040
:100CE00035E200BFB8F1000F1ED0B8F10C0F08BFFD
:100CF000BAF1010F18D0216A4FF0B04630680029D0
:100D000000F0668140F001003060FFF73FFC0546CF
:100D10003068800700F18481FFF738FC401B02280F
:100D20004FF00300F4D95BE3206A002800F0BA8298
:100D30004FF0B041A06A0A68120700F1D180DBF8D9
:100D400004100909CDE000BF6068002800F0AA8205
:100D5000207880072FD5B8F1040F1FD0B8F10C0F01
:100D600008BFBAF1020F19D021694FF0B0463068C0
:100D7000002900F0FD8140F480703060FFF706FC30
:100D8000054600BF306840050CD4FFF7FFFB401B51
:100D900002284FF00300F5D922E300BF20690028A4
:100DA00000F0808260695BF88C1C21F0FE4141EA12
:100DB00000604BF88C0C2078000729D4207840077D
:100DC00050D4E56A002D00F0AA82B8F10C0F40F073
:100DD0003D81012D00F066825BF8840C216B00F0F0
:100DE00003028A4240F05E82616B00F070028A4228
:100DF00040F05882A16B00F4FE42B2EB012F40F0AC
:100E00005182616C00F06040884240F04B8286E283
:100E1000A069DBF80410002800F0EC80E06901F024
:100E20001002904200F0C68201F00302022A00F094
:100E30003982C90700F0B782DBF8040020F0010016
:100E4000CBF80400FFF7A2FB0546DBF8040080079F
:100E500040F1A882FFF79AFB401B11284FF00300D6
:100E6000F3D9BDE2DBF87003C00511D4FFF722FC13
:100E7000FFF78CFB054600BFDBF87003C00507D405
:100E8000FFF784FB401B02284FF00300F4D9A7E2D0
:100E9000E068002800F07E81852801D0052805D172
:100EA000DBF8000040F00400CBF80000FFF76EFB19
:100EB000DBF80010054641F0010041F28836CBF81E
:100EC000000000BFDBF80000800700F11381FFF78E
:100ED0005DFB401BB0424FF00300F3D980E200BF3E
:100EE000096801F0F00142F248098842C0F60009A1
:100EF0002CD93C2101EA900042F2A801DBF87820CD
:100F0000C0F60001085802F00F0159F82110B0FB9B
:100F1000F1F5FFF7C7FBB0F5007F40F0BB804EF660
:100F2000BF20C0F22110854240F2E08049F23F30FC
:100F3000C0F23420854240F247814AF63F60C0F259
:100F4000EB20854240F2BA80002644E14FF0B041E8
:100F50000A6842F008020A600A6822F0F0020243BE
:100F60000A60616A5BF88C2C22F47F4242EA01211C
:100F70004BF88C1C3C2101EA900042F2A801DBF8FE
:100F80007820C0F60001085802F00F0159F821102E
:100F9000B0FBF1F5FFF786FBB0F5007F40F09080E5
:100FA0004EF6BF20C0F22110854240F2A18049F2E6
:100FB0003F30C0F23420854240F256814AF63F600D
:100FC000C0F2EB20854240F28F80002653E100BF43
:100FD00020F001003060FFF7D9FA0546306880073D
:100FE0007FF558AEFFF7D2FA401B02284FF00300FE
:100FF000F4D9F5E121F00100CBF80400FFF7C6FABF
:10100000054600BFDBF8040080077FF5D7AEFFF789
:10101000BDFA401B11284FF00300F3D9E0E100BFF7
:101020004FF0B040016841F0080101600168D4E967
:10103000093221F0F001114301605BF88C0C20F4BF
:101040007F4040EA03204BF88C0C23E64FF0B0467B
:10105000306820F080703060FFF798FA022D054666
:101060000CD100BF3068800140F12081FFF78EFA7B
:10107000401B0A284FF00300F4D9B1E13068800129
:1010800040F14481FFF782FA401B0A284FF0030029
:10109000F4D9A5E14CF6BF70C0F26A00854225D9AB
:1010A00045F63F50C0F2C600854240F28D8046F2C0
:1010B0003F60C0F2031085423FF646AF022084E055
:1010C0004CF6BF70C0F26A00854211D945F63F5018
:1010D000C0F2C600854240F2C78046F23F60C0F2CF
:1010E000031085423FF671AF0220BEE000206CE0A5
:1010F0000020BAE0E06840F00400852840F0148148
:10110000FFF744FADBF80010054641F0800041F299
:101110008836CBF8000000BFDBF8000000053FF583
:1011200050AEFFF733FA401BB0424FF00300F3D943
:1011300056E100BF4FF0B0463068002920F48030FF
:101140003060306820F40010306000F00581FFF757
:101150001DFA05464FF0B046306880033FF5F8AD04
:10116000FFF714FA401B64284FF00300F4D937E16D
:1011700020F480703060FFF709FA054630684005BA
:101180007FF519AEFFF702FA401B02284FF003006B
:10119000F4D925E1FFF7FAF9DBF80010064621F053
:1011A000800041F28837CBF8000000BFDBF8005028
:1011B000FFF7ECF92905054640F1DE80A81BB8428F
:1011C0004FF00300F2D90BE1012042F23C01C0F6DE
:1011D000000151F8206044F20007C5F600073868A6
:1011E00020F0070030433860FFF7D0F9054600BF14
:1011F000386800F00700B04206D0FFF7C7F9401B7F
:101200000228F5D94EE000BF4FF0B040016841F030
:10121000080101600168D4E9093221F0F0011143AD
:1012200001605BF88C0C20F47F4040EA03204BF80F
:101230008C0CFFF79FFC5BF8881C3C2202EA9101B2
:1012400059F8011040F20802B0FBF1F140F204003D
:10125000C2F200000068C2F200021160FFF7C0F99C
:10126000002840F0BD8015E5012042F23C01C0F6A7
:10127000000151F8206044F20007C5F60007386805
:1012800020F0070030433860FFF780F9054600BFC3
:10129000386800F00700B042CBD0FFF777F9401B69
:1012A0000228F5D9012001B0BDE8F08F5BF8840C6D
:1012B00048F28C01C1F2C11104F1300708408ECF11
:1012C000D4E910650843104340EA03203843304313
:1012D00028434BF8840C4FF0B045286840F08070EC
:1012E00028605BF8840C40F080504BF8840CFFF7CA
:1012F0004DF904462868800111D4FFF747F9001B17
:101300000A284FF00300F5D96AE000BF5BF8840CAF
:101310004FF6FC71CEF6FE6108404BF8840C0020BD
:1013200001B0BDE8F08F00BFFFF730F9DBF8001027
:10133000054621F0800041F28836CBF80000DBF84A
:10134000000000057FF53DADFFF720F9401BB042DE
:101350004FF00300F3D943E0FFF718F90546306872
:1013600080037FF5F5ACFFF711F9401B64284FF0BF
:101370000300F4D934E000BFDBF8000041F2883606
:1013800020F00100CBF80000DBF8000080077FF5BB
:1013900018ADFFF7FBF8401BB0424FF00300F3D944
:1013A0001EE000BFE069DBF8041021F010010843E3
:1013B000CBF80400DBF8040040F00100CBF8040097
:1013C000FFF7E4F8054600BFDBF8040080073FF5AF
:1013D000F5ACFFF7DBF8401B11284FF00300F3D901
:1013E00001B0BDE8F08F0000002804BF0120704765
:1013F00070B50446406A28B10020206104F1140051
:1014000006E000BF6068B0F5827F03D004F11C00E5
:101410000021016094F85D0028B9002084F85C0088
:10142000204600F06DF8022084F85D002068D4F8B2
:101430000CE00168BEF5E06F21F0400101604FF063
:1014400000024EF4006198BF0122B1F5706F4FF0B9
:10145000000118BFA1624FEA023CD4E90112D4E9AD
:10146000043501F4827102F40442114403F00202D3
:101470001144A26905F00103E569194402F40073FF
:10148000194405F03803256AA66A194405F0800559
:10149000294406F400552943B6F5005F01600FD1D9
:1014A000216B022905D059B9BEF5E06F06D902219A
:1014B0002163016841F40061016001E001212163C1
:1014C000042101EA1241626A0EF47063656B43EA1B
:1014D0000C0302F01002194305F0080511432943DB
:1014E0004160B6F5005F04BFA18D0161C16921F4BF
:1014F0000061C16100200121206684F85D1070BD8B
:1015000080B586B0006843F20001C4F20101884250
:1015100002D006B080BD00BF4C20C5F60000416976
:1015200041F480514161416901F480510191019977
:10153000016841F002010160006801A900F00200A9
:101540000190019838200190022002900020CDE9FE
:1015500003000520059040F20040C4F60000FEF7AD
:101560003FFF06B080BD0000411E0020B0EB116FB0
:101570001CBF012070474EF21002CEF200025160F3
:101580004EF62351CEF20001F0230B70072190603C
:101590001160704790F88410012904BF0220704741
:1015A0002421C0F8881002681168136823F0010331
:1015B000136021F000530021416613602022C0F81F
:1015C000882080F88410084670470000B0B590F875
:1015D0008420012A04BF0220B0BD2422C0F8882044
:1015E0000268D0F864E0D2F800C01368BEF1000FC2
:1015F00023F001031360936823F0606341EA030161
:10160000916019D09368916842F2101E490FC0F69C
:10161000000E42F218151EF80140C0F60005695C84
:10162000C3F34263E400B4FBF1F11EF80340EB5C4A
:10163000E500B5FBF3F301E001210123A0F86A10F6
:101640002021A0F86830C2F800C0C0F8881000213E
:1016500080F884100846B0BDB0B590F88420012A07
:1016600004BF0220B0BD2422C0F888200268D0F850
:1016700064E0D2F800C01368BEF1000F23F001034C
:101680001360936823F0604341EA0301916019D02D
:101690009368916842F2101E490FC0F6000E42F2A4
:1016A00018151EF80140C0F60005695CC3F34263DB
:1016B000E400B4FBF1F11EF80340EB5CE500B5FB80
:1016C000F3F301E001210123A0F86A102021A0F822
:1016D0006830C2F800C0C0F88810002180F884107B
:1016E0000846B0BDB0B582B0B0B10446D0F88800AD
:1016F00028B9002084F88400204600F059F82420FE
:10170000C4F888002068016821F0010101602046CA
:1017100000F0FEF9012803D1012002B0B0BD00BFE6
:10172000A06A10B1204600F07FF92068416821F4DA
:1017300090414160816821F02A018160016841F097
:10174000010101600020C4F89000FEF71FFF21682E
:1017500005460A6812070CD56FF07E4C20464FF400
:10176000001100222B46CDF800C000F003FB78B931
:101770002168086840070FD56FF07E4C20464FF473
:10178000800100222B46CDF800C000F0F3FA18B11A
:10179000032002B0B0BD00BF2020C4F88800C4F808
:1017A0008C000020E066206784F8840002B0B0BDA1
:1017B00010B594B0044601A808303021FEF7A2FD10
:1017C000206843F60001C4F20101884202D014B03F
:1017D00010BD00BF012001904FF44030029001A8DD
:1017E000FEF772FF002818BFFEF7F4FD4C20C5F687
:1017F0000000416941F480414161416901F4804147
:101800000F910F99016841F00201016000680FA972
:1018100000F002000F900F98C0200F90022010904F
:101820000020CDE911000720139040F20040C4F6DB
:101830000000FEF7D5FD14B010BD0000FEE700006B
:101840002DE9F04186B000264C200496C5F6000034
:10185000016840F2004441F0020101600168C4F6F1
:10186000000401F00201059105990168002241F090
:101870000101016001684FF4807501F001010591DB
:101880000599016841F080010160016801F0800163
:1018900005910599016841F00401016000684FF469
:1018A000807100F00400059005982046FEF768FE60
:1018B0004FF09040072100224FF00708FEF760FE2E
:1018C00000956D46012720462946CDE9017603960D
:1018D000FEF786FD4FF090402946CDE90087CDE91F
:1018E0000266FEF77DFD49F6F870009003274FF081
:1018F00090402946CDE90176FEF772FD0820CDE93A
:10190000000704F5C05029460296FEF769FD41F232
:101910000500CDE90007204629460296FEF760FD46
:101920004FF46040CDE9000704F580602946029637
:10193000FEF756FD06B0BDE8F081000080B540F22C
:10194000700043F20001C2F20000C4F201014FF442
:10195000827200234FF4407C4FF4007E80E80E102A
:1019600007210822C0E90433C0E906E3C0E90833CF
:10197000C0E90A31C0E90C32FFF736FD002808BF84
:1019800080BDBDE88040FEF725BD000080B540F277
:10199000D40043F60001C2F20000C4F201010023AA
:1019A0004FF00C0C4FF4965280E80E00C0E9033360
:1019B000C0E905C3C0E90733C0E90933FFF792FE68
:1019C000002818BFFEF706FD40F2D400C2F2000066
:1019D0000021FFF741FE002818BFFEF7FBFC40F294
:1019E000D400C2F200000021FFF7F0FD002818BF6C
:1019F000FEF7F0FC40F2D400C2F20000FFF7CAFD8F
:101A0000002808BF80BDBDE88040FEF7E3BC0000B1
:101A1000FEE70000FEE7000070470000704700008E
:101A2000FEF7BABD7047000080B5816ACA070DD1C4
:101A30008A0716D44A071FD40A0728D4CA0631D405
:101A40008A063AD44A0658D542E000BF0268D0F868
:101A50002CC0536823F4003343EA0C0353608A0715
:101A6000E8D50268D0F830C0536823F4803343EAE5
:101A70000C0353604A07DFD50268D0F834C05368BE
:101A800023F4802343EA0C0353600A07D6D5026887
:101A9000D0F838C0536823F4004343EA0C03536082
:101AA000CA06CDD50268D0F83CC0936823F48053B1
:101AB00043EA0C0393608A06C4D50268D0F840C09C
:101AC000936823F4005343EA0C0393604A0614D549
:101AD0000268D0F844C05368BCF5801F23F480131B
:101AE00043EA0C03536008D1D2F804C0D0F848E0B0
:101AF0002CF4C00343EA0E035360090658BF80BDAF
:101B00000168C06C4A6822F400221043486080BD1E
:101B100070B5054605F108041ECC0068194341EA7A
:101B20000403EE69046846F6F311CCF6FF71214018
:101B3000194331430160416848F2000E21F44051DD
:101B400011434160AA69C4F2000E70451CBF296AA6
:101B50000A4381684FF2FF43C1F2FF13194011435A
:101B60008160C16AD5F824C044F2004221F00F011F
:101B7000C4F2000241EA0C019042C1620ED07045ED
:101B800012D043F60001C4F20101884246D18821F7
:101B9000C5F600010A6873A30FE000BF8821C5F6EF
:101BA000000109688A0804E08821C5F60001096877
:101BB0008A0A42F20013C0F6000302F0030153F850
:101BC0002120704542F20040C0F2F4002DD0B6F55D
:101BD000004F11D1082A4FF0010100F2BA80DFE86E
:101BE00002F0056573B86BB8B8B87100FEF78AFFEC
:101BF000002840F05E8063E0082A4FF0010100F207
:101C0000A880DFE802F0057F8DA685A6A6A68B003A
:101C1000FEF778FF002840F078807DE010227045C4
:101C200042F20040C0F2F400D1D1082A4FF0010185
:101C300000F28F80DFE802F0068D148D0C8D8D8D03
:101C4000120000BFFEF75EFF30B1D5F824C007E0F8
:101C5000FEF790FF0028F8D100217AE04FF4004011
:101C600042F2E801C0F6000131F81C106A68B0FBCE
:101C7000F1F002EB420188424FF0010169D31303F6
:101C8000984266D8010E000210EB520041F10001AB
:101C90000023FEF7BFFA4FF60052A0F54071C0F2E4
:101CA0000F0291424FD3012153E000BFFEF746FFE0
:101CB00030B1D5F824C007E0FEF75CFF0028F8D16A
:101CC000002146E04FF4004042F2E801C0F6000176
:101CD00031F81C106A68B0FBF1F0510801EB4000CC
:101CE000B0FBF2F04FF6EF72A0F11001914207D86D
:101CF0004FF6F0710140C0F34200084423E000BFFA
:101D0000012126E0FEF71AFF30B1D5F824C007E024
:101D1000FEF730FF0028F8D100211AE04FF4004010
:101D200042F2E801C0F6000131F81C104FF6EF72E4
:101D3000B0FBF1F0696800EB5100B0FBF1F0A0F1ED
:101D40001001914204D82968C860002101E000BF59
:101D500001214FF00110A866002208466A67AA67B1
:101D600070BD00BF01000000040000000200000080
:101D7000080000002DE9F041044600681546C269DC
:101D80000E461140891BB1FA81F14909A94240F080
:101D9000A080DDF81880B8F1000F29D018F10101FA
:101DA00040F08080C1693140891BB1FA81F1490955
:101DB000A94240F08E80C1693140891BB1FA81F19E
:101DC0004909A94240F08580C1693140891BB1FAB7
:101DD00081F14909A9427CD1C1693140891BB1FA1D
:101DE00081F14909A942DDD00020BDE8F08100BFA2
:101DF000FEF7CCFB206850E8000F216820F4D0707B
:101E000041E80002BAB3206850E8000F216820F4CE
:101E1000D07041E8000272B3206850E8000F2168DA
:101E200020F4D07041E800022AB3206850E8000F87
:101E3000216820F4D07041E80002002ADAD11AE0CB
:101E4000206850E8020F216820F0010041E80202FA
:101E5000DAB1206850E8020F216820F0010041E863
:101E6000020292B1206850E8020F216820F00100C0
:101E700041E802024AB1206850E8020F216820F0D0
:101E8000010041E80202002ADAD12020C4F88800CB
:101E900004F18C0020210160002084F884000320DC
:101EA000BDE8F0811F4600BFFEF770FBC01B404538
:101EB000A0D820680168490744BFC1695FEA0151A1
:101EC0000AD4C0693040801BB0FA80F04009A842B3
:101ED000EAD00020BDE8F0814FF40061016200BF4C
:101EE000206850E8000F216820F4D07041E800021B
:101EF000BAB3206850E8000F216820F4D07041E8A0
:101F0000000272B3206850E8000F216820F4D070FE
:101F100041E800022AB3206850E8000F216820F44D
:101F2000D07041E80002002ADAD11AE0206850E8B7
:101F3000020F216820F0010041E80202DAB12068B6
:101F400050E8020F216820F0010041E8020292B13E
:101F5000206850E8020F216820F0010041E80202E9
:101F60004AB1206850E8020F216820F0010041E8E2
:101F70000202002ADAD12020C4F88800C4F88C00BC
:101F800004F1900086E70000FEE700009AB0FEF73B
:101F900011FB002440F20040CDE91144CDE90F448B
:101FA000CDE90D44CDE90B44CDE90644CDE9044427
:101FB000CDE90244C5F600000168012262F34A211E
:101FC00001600068032500F4C060019001984FF49F
:101FD0008030CDE9090402201390062016904FF4BA
:101FE000003017904FF0005019904FF0007018908B
:101FF00008A80892CDE91454FEF736FE20B1EFF39D
:10200000108072B6FEE700BF4F20CDE9020502A89E
:102010000221CDE90444CDE90644FEF75FFC28B176
:10202000EFF3108072B600BFFEE700BFFFF708FCB9
:10203000FFF7ACFCFFF782FCFEE7000000000000A9
:102040000100000002000000010000000300000089
:102050000500000001000000010000000600000073
:102060000A00000020000000020000000400000040
:102070000800000010000000400000008000000088
:10208000000100000002000000000000000000004D
:10209000000000000000000001000000020000003D
:1020A0000300000004000000A0860100400D0300B2
:1020B000801A060000350C0040420F0080841E008C
:1020C00000093D0000127A000024F40000366E0181
:1020D0000048E801006CDC02000000000000000085
:1020E00000000000000000000100020004000600E3
:1020F00008000A000C0010002000400080000001D1
:1021000000000000040000000200000008000000C1
:102110000101010307010000080402040801010194
:102120004021000800000020100000007401000899
:1021300050210008100000206007000090010008F6
:10214000010000001000000000093D000000000038
:0400000508000139B5
:00000001FF
