:020000040800F2
:10000000700700204D010008C1260008CD2400081B
:10001000BD260008590200081D300008000000003D
:10002000000000000000000000000000C9260008D9
:100030007502000800000000C5260008CD26000853
:1000400067010008670100086701000867010008F0
:1000500067010008670100086701000867010008E0
:100060006701000867010008670100085D020008D9
:1000700069020008670100086701000867010008BD
:1000800067010008670100086701000867010008B0
:100090000000000067010008670100086701000810
:1000A0006701000867010008670100086701000890
:1000B0006701000867010008670100086701000880
:1000C0006701000867010008670100086701000870
:1000D000A12F0008670100086701000867010008F8
:1000E0006701000867010008670100086701000850
:1000F0006701000800000000000000006701000820
:10010000670100086701000867010008670100082F
:10011000670100086701000867010008670100081F
:10012000670100086701000867010008670100080F
:100130006701000867010008DFF80CD000F07AF8CA
:10014000004800472130000870070020064880471B
:1001500006480047FEE7FEE7FEE7FEE7FEE7FEE7AC
:10016000FEE7FEE7FEE7FEE7D126000839010008BA
:100170002DE9F05F0546002092469B4688460646DC
:10018000814640241BE0284641464746224600F06F
:1001900041F853465A46C01A914110D311461846A9
:1001A000224600F028F82D1A67EB01084F46224638
:1001B0000120002100F01FF817EB00094E41201E1E
:1001C000A4F10104DFDC484631462A464346BDE837
:1001D000F09FD2B201E000F8012B491EFBD270471C
:1001E0000022F6E710B513460A4604461946FFF703
:1001F000F0FF204610BD202A04DB203A00FA02F16D
:10020000002070479140C2F1200320FA03F3194304
:1002100090407047202A04DB203A21FA02F00021A6
:10022000704721FA02F3D040C2F120029140084306
:1002300019467047064C074D06E0E06840F00103A0
:1002400094E8070098471034AC42F6D3FFF778FFE4
:10025000E431000804320008FEE7000040F21420F8
:10026000C2F2000000F082B840F27420C2F2000036
:1002700000F07CB870470000EFF3108072B600BF4A
:10028000FEE70000002804BF0120704780B590F809
:100290002510022926D10168D0E910CE826C0B68A6
:1002A00023F00E030B60136823F4807313600A6855
:1002B00022F001020A600EF01C02012101FA02F292
:1002C000CCF80420D0E913325A60426D32B1136881
:1002D00023F480731360D0E91623536080F825104F
:1002E000002102E00421C1630121002280F82420C2
:1002F000BDE880400846704780B590F82510022977
:100300002ED10168D0E910CE826C0B6823F00E0369
:100310000B600B6823F001030B60116821F48071FE
:1003200011600EF01C02012101FA02F2CCF8042047
:10033000D0E913325A60426D32B1136823F48073EE
:100340001360D0E91623536080F82510826B0021DA
:1003500080F824100AB190470021084680BD00BFF4
:100360000421C163012080BDC06B704770B5D0E926
:1003700010C20168DCF8004002F01C0304220E6881
:100380009A40224218BF16F0040525D1022202FA33
:1003900003FE1EEA040F18BF16F002022AD124FA47
:1003A00003F2120724D516F0080208BF70BD0A68D0
:1003B00022F00E020A60012101FA03F2CCF80420B7
:1003C000C16380F82510416B002280F8242079B1A8
:1003D000BDE87040084700BF0B689B0603D40B685C
:1003E00023F004030B60CCF80420016B0029EFD14B
:1003F00070BD00BF0A68920606D40A6822F00A029D
:100400000A60012280F825200422C4F2020202F1CF
:100410007C03994288BF02F58062C2F800E0C16A9D
:100420000022002980F82420D2D1E1E72DE9F04F05
:1004300081B000284FF0010E00F092800021C4F23C
:10044000020103684FF6F83401F58169CBF6FD74BB
:100450000A464B4538BF04F580644CF6CD411C4438
:10046000CCF6CC41A4FB015703F0FC0540F6840810
:10047000A5F10805C4F202080097A5FB0156114634
:1004800002F58062A8F16807D0E902CAD0F810B07E
:100490003CBF0022C4F202024B4538BF01F50067A1
:1004A00000996FF0030404EA9104C0E910240222C9
:1004B00080F825201A6847F6F075AA431A60426949
:1004C0004AEA0B0581692A43C5691143026A294337
:1004D0001D681143294341EA0C011960072101EB12
:1004E00016114B4538BF3109A8F1040301F01F0173
:1004F0003A19C3640EFA01F3BCF5804F82640365B8
:1005000006D1002141601160C8F800301AE000BF38
:10051000416801F07F04013903294FF000011460A4
:10052000C8F800300ED8621E08EB820747F87C1F1F
:1005300002F0030101228A4008F1BC033946C8F8E1
:10054000C02001E000230022C0E915134FF0000E87
:100550000121C265C0F83CE080F8251080F824E055
:10056000704601B0BDE8F08F2DE9F04190F824C04D
:10057000BCF1010F04BF0220BDE8F0814FF0010C77
:1005800080F824C090F825C0BCF1010F38D14FF09D
:10059000020C80F825C04FF0000CC0F83CC0D0F829
:1005A00000C000F14C0E9EE83040DCF80060BEF167
:1005B000000F26F00106CCF8006065601CBFD0E992
:1005C00016456560D0E91076012506F01C068468A2
:1005D000B540D0F830807D60CCF804300B46102C4C
:1005E00004BF13460A46CCF80830CCF80C20DCF8DF
:1005F0000010B8F1000F0BD041F00E0110E000BF69
:100600008021C163002180F824100120BDE8F08121
:1006100021F00401CCF80010DCF8001041F00A01D0
:10062000CCF80010806C0168C90303D5016841F45F
:1006300080710160BEF1000F05D0DEF8000040F4CB
:100640008070CEF80000DCF8000040F00100CCF82B
:1006500000000020BDE8F081B0B5044600F0EEF8DF
:10066000054640F20000C2F200000078611C18BF8D
:10067000044400BF00F0E2F8401BA042FAD3B0BD32
:100680002DE9F04F81B00E68002E00F0C58040F6D5
:100690000003C4F6000398424FF007024FF0000336
:1006A0004FF001074FF0000B4FF0000508BF02228A
:1006B00000924FE040F20042C4F60002DDF800E094
:1006C000904208BF4FF0010E0BF00C060724B44017
:1006D0002CEA04040EFA06F60827AA082643C4F2F8
:1006E000010740F6000C47F82260C5F6000CDCF864
:1006F00000204E6842EA0804F70258BF22EA0804C4
:10070000CCF80040DCF80420B40242EA080758BFE5
:1007100022EA0807CCF80470DCF88020F40342EAEF
:10072000080758BF22EA0807CCF88070DCF884205C
:10073000B60342EA080758BF22EA0807CCF88470DB
:1007400001270E68013536FA05F20BF1040B03F1AF
:10075000020361D007FA05FE16EA0E08F1D0D1F8BF
:1007600004A003220AF0030CACF1010402FA03F620
:10077000012C6FEA06090FD88468CE6804EA0904E0
:100780009E4034438460446824EA0E06CAF3001491
:10079000AC402643466005E0BCF1030F02D14FF0A8
:1007A000030C21E0C6688C6806EA09069C402643D3
:1007B000BCF1020FC66017D16FF0030202EA5506C2
:1007C00006440BF01C020F24D6F820C004FA02FEE7
:1007D0000C692CEA0E0C04FA02F242EA0C023262B4
:1007E000D1F804A00AF0030C02680CFA03F602EA3E
:1007F000090232431AF4403F0260A2D0082725F0D4
:100800000302C4F2010752F807C0B0F1904F7FF421
:1008100051AF4FF0000E57E701B0BDE8F08F000078
:10082000426902EA0103914341EA03418161704751
:100830001823002A08BF2823C150704740F26830AF
:10084000C2F200000068704740F2000040F26831D8
:10085000C2F20000C2F2000100780A681044086089
:100860007047000080B5032000F078F800F0A4FA8B
:1008700040F20801C2F2000108600F2000F008F801
:1008800000281CBF012080BD00F026F8002080BD9C
:1008900070B540F20006C2F200063178D1B10446CC
:1008A00000F08AFA31784FF47A72B2FBF1F1B0FBC2
:1008B000F1F000F005FF0F2C4FF0010508D838B912
:1008C0004FF0FF3021460022002500F01BF8746035
:1008D000284670BD012070BD70470000002848BF49
:1008E0007047C1B200F01F00012202FA00F04EF280
:1008F0000012CEF2000242EAD10121F003010860A9
:100900007047000010B54EF60C5CCEF2000CDCF81F
:100910000030C3F3022E8EF00704042C28BF0424F9
:10092000BEF103034FF0FF3E0EFA04F438BF00237C
:10093000A14399400EFA03F39A43114300F00F02CA
:1009400000F160430901043A03F56443624400285E
:1009500048BF02F10C03197010BD00004EF60C5197
:10096000CEF200010A684FF6FF031A4060F30A2234
:1009700042F0806040F0FD700860704740F2004037
:10098000C5F60000006800F4C060704740F2004007
:10099000C5F60000016841F48071016070470000F5
:1009A000F0B581B0044680788826C007C5F60006F9
:1009B00000F0AC80FFF7EAFFFFF740FF054600BFFD
:1009C000D6F87803C00577D4FFF738FF401B02281C
:1009D000F6D903202168CA0700F09D806268336859
:1009E00023EA124392B21A4332608A0740F196809A
:1009F000A268336823EA124392B21A4332608A062D
:100A000040F18F802269336823F440631A433260D7
:100A10008A0540F18980226A33684FF6FF7767EADA
:100A200002073B4043EA024232604A0540F17F80C0
:100A3000626A33684FF6FF7767EA02073B4043EA92
:100A4000024232600A0575D5A26A33684FF6FF7715
:100A500067EA02073B4043EA024232604A066BD52E
:100A6000626933686FF47F2767EA12173B4002F42C
:100A70007F4243EA021232600A065FD5A2693368F8
:100A80006FF47F2767EA12173B4002F47F4243EA84
:100A900002123260CA0553D5E26933686FF47F27CA
:100AA00067EA12173B4002F47F4243EA02123260C7
:100AB000CA0657D546E000BFB168606B01F44071CB
:100AC00081421ED0B168B26821F4407342F4803292
:100AD000B260B268890722F480320146B260B36026
:100AE0000FD5FFF7ABFE054641F28837B0688007A7
:100AF00006D4FFF7A3FE401BB842F7D969E700BF51
:100B0000616BB06820F440700843B0600020216839
:100B1000CA077FF463AF8A073FF56AAF8A063FF5DD
:100B200071AF8A053FF577AF4A053FF581AF0A05FA
:100B30003FF58AAF4A0693D40A069FD4CA05ABD4C0
:100B4000CA060FD5E2683368B2F5807F23F440739C
:100B500043EA0203336005D156F87C2C42F08072E0
:100B600046F87C2C0A0407D5226B336823F04043F7
:100B700043EA020333609AB1490419D5E16A326845
:100B8000B1F1005F22F0405242EA010232600FD11F
:100B900056F87C1C41F4803146F87C1C08E000BF0C
:100BA00056F87C2C42F0807246F87C2C4904E5D43F
:100BB00001B0F0BD2DE9F04381B0002800F0B38012
:100BC00044F20008C5F600080546D8F800000C46B7
:100BD00000F00700884215D2D8F8000020F0070086
:100BE0002043C8F80000FFF729FE0646D8F80000A9
:100BF00000F00700A04205D0FFF720FE801B02286E
:100C0000F4D95FE0286808278107C5F6000714D5E6
:100C1000A868396821F0F00108433860FFF70EFE3C
:100C2000064600BF3868C00306D4FFF707FE801BE6
:100C30000228F7D946E000BF2868410617D5686941
:100C4000D7F8001121F00F0141EA1010C7F8000198
:100C5000FFF7F4FD064600BFD7F80001C00305D436
:100C6000FFF7ECFD801B0228F6D92BE0286841072E
:100C700013D5E868396821F4E06108433860FFF76C
:100C8000DDFD06463868800306D4FFF7D7FD801BDC
:100C90000228F7D916E000BF2868010717D5286990
:100CA000396821F4605141EAC0003860FFF7C6FDA1
:100CB000064600BF3868400308D4FFF7BFFD801B1D
:100CC0000228F7D9032001B0BDE8F0832868C007E7
:100CD0001ED1D8F8000000F00700A04228D9D8F8AB
:100CE000000020F007002043C8F80000FFF7A6FD31
:100CF000054600BFD8F8000000F00700A04217D05A
:100D0000FFF79CFD401B02284FF00300F2D947E09B
:100D100068684FF0B04138B3032845D0022847D166
:100D20000968890323D4012001B0BDE8F08300BF26
:100D300000F08CF839683C2202EA910143F20C126F
:100D4000C0F60002515840F20802B0FBF1F140F247
:100D50000400C2F200000068C2F20002116001B09B
:100D6000BDE8F043FFF794BD09688907DBD5396812
:100D700021F0030108433860FFF760FD064641F2A9
:100D8000883900BF3868696800F00C00B0EB810F4B
:100D90009FD0FFF753FD801B48454FF00300F1D96A
:100DA00001B0BDE8F08300BF09688901BBD5DEE76B
:100DB00009684905B7D5DAE780B500F047F808219A
:100DC000C5F6000109683C2202EA910143F20C12C7
:100DD000C0F600025158B0FBF1F080BD80B500F0C4
:100DE00035F80821C5F600010A683C2303EA92029F
:100DF00043F20C13C0F600039A580968B0FBF2F0F6
:100E000043F24C12C1F30221C0F6000252F8211045
:100E1000C84080BD80B500F019F80821C5F6000172
:100E20000A683C2303EA920243F20C13C0F6000363
:100E30009A580968B0FBF2F043F24C12C1F3C22198
:100E4000C0F6000252F82110C84080BD0C21C5F642
:100E5000000151F8040C10F00C02086805D00C2AAF
:100E600016D100F00300012812D14FF0B040036802
:100E700000681B0700F0080006D4D8B9D1F8880034
:100E8000C0F3032021E000BFD0B9D1F8880014E0FE
:100E900042F20040042AC0F2F40022D0082A1FD1F6
:100EA0004FF0B0421268D2025CBF44F60000C0F2BC
:100EB000E81016E04FF0B0400068002005E000BFE9
:100EC0004FF0B0400068C0F3031043F26C13C0F65B
:100ED000000353F82030002A184618BF002001E014
:100EE0000020002351F8042C02F00C020C2A18BF39
:100EF0007047086800F0030242F20040022AC0F284
:100F0000F4000AD0032A09D14FF0B0421268D2028D
:100F10005CBF44F60000C0F2E810034608680A68A7
:100F2000C0F30620C2F30212584301320968B0FB35
:100F3000F2F0012202EB5171B0FBF1F070470000BA
:100F40002DE9F04F81B0002800F0188340F2900B9B
:100F50000446C5F6000B5BF8880C5BF8841C22780D
:100F600000F00C08900601F0030A27D42078C0078F
:100F70005AD0B8F1080F53D0B8F10C0F08BFBAF12E
:100F8000030F4DD04FF0B040016821F48012D4E936
:100F900001131A43B1F5803F026009D0B1F5041F77
:100FA00040F034824FF0B0410A6842F400120A6007
:100FB000016841F48031016035E200BFB8F1000FF3
:100FC0001ED0B8F10C0F08BFBAF1010F18D0216A7A
:100FD0004FF0B0463068002900F0668140F0010013
:100FE0003060FFF72BFC05463068800700F18481F4
:100FF000FFF724FC401B02284FF00300F4D95BE309
:10100000206A002800F0BA824FF0B041A06A0A6856
:10101000120700F1D180DBF804100909CDE000BF10
:101020006068002800F0AA82207880072FD5B8F1E8
:10103000040F1FD0B8F10C0F08BFBAF1020F19D07E
:1010400021694FF0B0463068002900F0FD8140F47E
:1010500080703060FFF7F2FB054600BF3068400546
:101060000CD4FFF7EBFB401B02284FF00300F5D92F
:1010700022E300BF2069002800F0808260695BF8ED
:101080008C1C21F0FE4141EA00604BF88C0C20786A
:10109000000729D42078400750D4E56A002D00F0DD
:1010A000AA82B8F10C0F40F03D81012D00F066825C
:1010B0005BF8840C216B00F003028A4240F05E82F0
:1010C000616B00F070028A4240F05882A16B00F41C
:1010D000FE42B2EB012F40F05182616C00F06040A3
:1010E000884240F04B8286E2A069DBF804100028B9
:1010F00000F0EC80E06901F01002904200F0C6823E
:1011000001F00302022A00F03982C90700F0B78219
:10111000DBF8040020F00100CBF80400FFF78EFBA1
:101120000546DBF80400800740F1A882FFF786FB44
:10113000401B11284FF00300F3D9BDE2DBF8700328
:10114000C00511D4FFF722FCFFF778FB054600BF6E
:10115000DBF87003C00507D4FFF770FB401B0228C3
:101160004FF00300F4D9A7E2E068002800F07E8188
:10117000852801D0052805D1DBF8000040F00400E7
:10118000CBF80000FFF75AFBDBF80010054641F0F2
:10119000010041F28836CBF8000000BFDBF8000008
:1011A000800700F11381FFF749FB401BB0424FF06D
:1011B0000300F3D980E200BF096801F0F00143F2B7
:1011C0000C198842C0F600092CD93C2101EA900094
:1011D00043F26C11DBF87820C0F60001085802F0E9
:1011E0000F0159F82110B0FBF1F5FFF7C7FBB0F57F
:1011F000007F40F0BB804EF6BF20C0F22110854238
:1012000040F2E08049F23F30C0F23420854240F2A3
:1012100047814AF63F60C0F2EB20854240F2BA8037
:10122000002644E14FF0B0410A6842F008020A602B
:101230000A6822F0F00202430A60616A5BF88C2CB3
:1012400022F47F4242EA01214BF88C1C3C2101EA46
:10125000900043F26C11DBF87820C0F600010858CA
:1012600002F00F0159F82110B0FBF1F5FFF786FBF2
:10127000B0F5007F40F090804EF6BF20C0F2211004
:10128000854240F2A18049F23F30C0F234208542CD
:1012900040F256814AF63F60C0F2EB20854240F2B0
:1012A0008F80002653E100BF20F001003060FFF77F
:1012B000C5FA0546306880077FF558AEFFF7BEFADD
:1012C000401B02284FF00300F4D9F5E121F00100A2
:1012D000CBF80400FFF7B2FA054600BFDBF80400C4
:1012E00080077FF5D7AEFFF7A9FA401B11284FF012
:1012F0000300F3D9E0E100BF4FF0B040016841F0D6
:10130000080101600168D4E9093221F0F0011143BC
:1013100001605BF88C0C20F47F4040EA03204BF81E
:101320008C0C23E64FF0B046306820F080703060BF
:10133000FFF784FA022D05460CD100BF306880010A
:1013400040F12081FFF77AFA401B0A284FF0030092
:10135000F4D9B1E13068800140F14481FFF76EFAC1
:10136000401B0A284FF00300F4D9A5E14CF6BF70EA
:10137000C0F26A00854225D945F63F50C0F2C6004A
:10138000854240F28D8046F23F60C0F203108542F4
:101390003FF646AF022084E04CF6BF70C0F26A0010
:1013A000854211D945F63F50C0F2C600854240F251
:1013B000C78046F23F60C0F2031085423FF671AF2E
:1013C0000220BEE000206CE00020BAE0E06840F0BF
:1013D0000400852840F01481FFF730FADBF8001094
:1013E000054641F0800041F28836CBF8000000BF8E
:1013F000DBF8000000053FF550AEFFF71FFA401B79
:10140000B0424FF00300F3D956E100BF4FF0B046B1
:101410003068002920F480303060306820F40010FB
:10142000306000F00581FFF709FA05464FF0B0463D
:10143000306880033FF5F8ADFFF700FA401B6428E1
:101440004FF00300F4D937E120F480703060FFF7EB
:10145000F5F90546306840057FF519AEFFF7EEF95E
:10146000401B02284FF00300F4D925E1FFF7E6F90D
:10147000DBF80010064621F0800041F28837CBF8F7
:10148000000000BFDBF80050FFF7D8F9290505463A
:1014900040F1DE80A81BB8424FF00300F2D90BE107
:1014A000012043F20011C0F6000151F8206044F21F
:1014B0000007C5F60007386820F0070030433860A1
:1014C000FFF7BCF9054600BF386800F00700B042DE
:1014D00006D0FFF7B3F9401B0228F5D94EE000BF54
:1014E0004FF0B040016841F0080101600168D4E9A3
:1014F000093221F0F001114301605BF88C0C20F4FB
:101500007F4040EA03204BF88C0CFFF79FFC5BF810
:10151000881C3C2202EA910159F8011040F20802AD
:10152000B0FBF1F140F20400C2F200000068C2F228
:1015300000021160FFF7ACF9002840F0BD8015E50E
:10154000012043F20011C0F6000151F8206044F27E
:101550000007C5F60007386820F007003043386000
:10156000FFF76CF9054600BF386800F00700B0428D
:10157000CBD0FFF763F9401B0228F5D9012001B059
:10158000BDE8F08F5BF8840C48F28C01C1F2C11108
:1015900004F1300708408ECFD4E9106508431043AA
:1015A00040EA03203843304328434BF8840C4FF083
:1015B000B045286840F0807028605BF8840C40F0EB
:1015C00080504BF8840CFFF739F9044628688001F5
:1015D00011D4FFF733F9001B0A284FF00300F5D9A7
:1015E0006AE000BF5BF8840C4FF6FC71CEF6FE613A
:1015F00008404BF8840C002001B0BDE8F08F00BF1C
:10160000FFF71CF9DBF80010054621F0800041F2DD
:101610008836CBF80000DBF8000000057FF53DAD13
:10162000FFF70CF9401BB0424FF00300F3D943E041
:10163000FFF704F90546306880037FF5F5ACFFF746
:10164000FDF8401B64284FF00300F4D934E000BFDC
:10165000DBF8000041F2883620F00100CBF80000F2
:10166000DBF8000080077FF518ADFFF7E7F8401BB7
:10167000B0424FF00300F3D91EE000BFE069DBF891
:10168000041021F010010843CBF80400DBF804003B
:1016900040F00100CBF80400FFF7D0F8054600BF8A
:1016A000DBF8040080073FF5F5ACFFF7C7F8401BF7
:1016B00011284FF00300F3D901B0BDE8F08F00000E
:1016C000411E0020B0EB116F1CBF012070474EF28D
:1016D0001002CEF2000251604EF62351CEF200010C
:1016E000F0230B70072190601160704790F8841010
:1016F000012904BF022070472421C0F88810026825
:101700001168136823F00103136021F000530021D6
:10171000416613602022C0F8882080F884100846B3
:10172000704700007047000070470000B0B590F8A7
:101730008420012A04BF0220B0BD2422C0F88820E2
:101740000268D0F864E0D2F800C01368BEF1000F60
:1017500023F001031360936823F0606341EA0301FF
:10176000916019D09368916843F2D41E490FC0F676
:10177000000E43F2DC151EF80140C0F60005695C5E
:10178000C3F34263E400B4FBF1F11EF80340EB5CE9
:10179000E500B5FBF3F301E001210123A0F86A1095
:1017A0002021A0F86830C2F800C0C0F888100021DD
:1017B00080F884100846B0BDB0B590F88420012AA6
:1017C00004BF0220B0BD2422C0F888200268D0F8EF
:1017D00064E0D2F800C01368BEF1000F23F00103EB
:1017E0001360936823F0604341EA0301916019D0CC
:1017F0009368916843F2D41E490FC0F6000E43F27D
:10180000DC151EF80140C0F60005695CC3F34263B5
:10181000E400B4FBF1F11EF80340EB5CE500B5FB1E
:10182000F3F301E001210123A0F86A102021A0F8C0
:101830006830C2F800C0C0F88810002180F8841019
:101840000846B0BD7047000070470000B0B50446C0
:101850000068D4F88810D4F88C508268120640F1E1
:101860008280212940F07F80206850E8020F2168A3
:1018700020F0800041E80202DAB1206850E8020F4F
:10188000216820F0800041E8020292B1206850E80F
:10189000020F216820F0800041E802024AB120686E
:1018A00050E8020F216820F0800041E80202002A7F
:1018B000DAD1E06F40B1FEF7E5FC28B1E06FFEF74A
:1018C00053FD202800F08980206850E8000F21682F
:1018D00020F0C00041E80002BAB3206850E8000FD1
:1018E000216820F0C00041E8000272B3206850E88F
:1018F000000F216820F0C00041E800022AB32068F0
:1019000050E8000F216820F0C00041E80002002AE2
:10191000DAD11AE0206850E8020F216820F40000B4
:1019200041E80202DAB1206850E8020F216820F491
:10193000000041E8020292B1206850E8020F2168DD
:1019400020F4000041E802024AB1206850E8020F8A
:10195000216820F4000041E80202002ADAD12020A8
:10196000C4F888002068806840064FF0000040F10D
:10197000B280222D18BFB0BD206850E8020F216848
:1019800020F0400041E80202DAB1206850E8020F7E
:10199000216820F0400041E8020292B1206850E83E
:1019A000020F216820F0400041E802024AB120689D
:1019B00050E8020F216820F0400041E80202002AAE
:1019C000DAD1D4F8800068B1FEF75CFC50B1D4F8ED
:1019D0008000FEF7C9FC202804D11020C4F8900034
:1019E0000320B0BD206850E8000F216820F49070FB
:1019F00041E80002DAB1206850E8000F216820F4C5
:101A0000907041E8000292B1206850E8000F216810
:101A100020F4907041E800024AB1206850E8000FBD
:101A2000216820F4907041E80002002ADAD14FF6D4
:101A3000FE70CEF6FF7000BF216851E8021F2268D9
:101A4000014042E80213C3B1216851E8021F226835
:101A5000014042E8021383B1216851E8021F226865
:101A6000014042E8021343B1216851E8021F226895
:101A7000014042E80213002BDED1E06E012824D1A0
:101A8000206850E8000F216820F0100041E80002B3
:101A9000DAB1206850E8000F216820F0100041E81A
:101AA000000292B1206850E8000F216820F0100079
:101AB00041E800024AB1206850E8000F216820F098
:101AC000100041E80002002ADAD12020C4F88C007E
:101AD0000020E0666067B0BD7047000070B5016827
:101AE00040F62F03CA69044608688E681340202B0D
:101AF0000CD100F0200306F080555B1917D0616F00
:101B000000297BD02046BDE87040084740F60F030F
:101B10001A420CD00123C1F2000306EA030C40F282
:101B20002013C0F20043034013EB0C0368D1E36EB3
:101B3000012B05D112F0100318BF10F010034DD186
:101B4000D3020BD516F4800308D04FF48012204640
:101B50000A62BDE87040FFF777BE00BF110606D5E8
:101B600000F0800106F40003C91840F035825106E8
:101B700040F10E8110F0400100F00A81206850E829
:101B8000000F216820F0400041E80002DAB120682F
:101B900050E8000F216820F0400041E8000292B1B7
:101BA000206850E8000F216820F0400041E8000262
:101BB0004AB1206850E8000F216820F0400041E859
:101BC0000002002ADAD120200021C4F88800204633
:101BD000A167BDE8704000F077BC00BF102008622C
:101BE0008868400618D4B4F85C00B4F85E10B4F805
:101BF0005E20002A18BF884240F0068270BD00BFF8
:101C0000D30718BF10F4807340F0CE80930706F01E
:101C1000010E00F1D580DEE0D4F880000068416854
:101C20008AB2002AEAD0B4F85C309A42E6D2A4F82C
:101C30005E100068800600F19E80206850E8000F6A
:101C4000216820F4807041E80002DAB1206850E891
:101C5000000F216820F4807041E8000292B12068F2
:101C600050E8000F216820F4807041E800024AB17A
:101C7000206850E8000F216820F4807041E80002DD
:101C8000002ADAD1206850E8020F216820F0010014
:101C900041E80202BAB3206850E8020F216820F040
:101CA000010041E8020272B3206850E8020F216887
:101CB00020F0010041E802022AB3206850E8020F38
:101CC000216820F0010041E80202002ADAD11AE07E
:101CD000206850E8020F216820F0400041E802022D
:101CE000DAB1206850E8020F216820F0400041E896
:101CF000020292B1206850E8020F216820F04000F3
:101D000041E802024AB1206850E8020F216820F041
:101D1000400041E80202002ADAD12020C4F88C00F9
:101D20000020E066206850E8000F216820F01000D5
:101D300041E80002DAB1206850E8000F216820F085
:101D4000100041E8000292B1206850E8000F2168BD
:101D500020F0100041E800024AB1206850E8000F6E
:101D6000216820F0100041E80002002ADAD1D4F8FE
:101D70008000FEF787FA02202067B4F85C00B4F810
:101D80005E10401A81B22046BDE87040FFF7CABC21
:101D9000110240F1278110F0804100F0238120469C
:101DA000BDE87040FFF74EBD01230B62D4F89030C0
:101DB00043F00103C4F89030930706F0010E0AD5F2
:101DC000BEF1000F07D002230B62D4F8903043F02D
:101DD0000403C4F8903053070AD5BEF1000F07D0B2
:101DE00004230B62D4F8903043F00203C4F890301F
:101DF00013070CD500F0200353EA0C0307D0082387
:101E00000B62D4F8903043F00803C4F89030130507
:101E10000BD510F0806308D04FF400630B62D4F848
:101E2000903043F02003C4F89030D4F89030002B69
:101E30003FF4E4AE12F020021EBF00F0200006F0D6
:101E4000805210EB020040F06181D4F89000896864
:101E500000F0280001F04001401807D12046FFF7AC
:101E60003BFE0020C4F8900070BD00BF206850E821
:101E7000000F216820F4907041E80002DAB1206878
:101E800050E8000F216820F4907041E8000292B100
:101E9000206850E8000F216820F4907041E80002AB
:101EA0004AB1206850E8000F216820F4907041E8A2
:101EB0000002002ADAD14FF6FE70CEF6FF7000BFA6
:101EC000216851E8021F2268014042E80213C3B1B1
:101ED000216851E8021F2268014042E8021383B1E1
:101EE000216851E8021F2268014042E8021343B111
:101EF000216851E8021F2268014042E80213002BCA
:101F0000DED1E06E012824D1206850E8000F21685E
:101F100020F0100041E80002DAB1206850E8000F1C
:101F2000216820F0100041E8000292B1206850E8DA
:101F3000000F216820F0100041E800024AB120683B
:101F400050E8000F216820F0100041E80002002A4C
:101F5000DAD12020C4F88C000020E0662168606798
:101F6000886840064AD500BF206850E8020F216803
:101F700020F0400041E80202DAB1206850E8020F88
:101F8000216820F0400041E8020292B1206850E848
:101F9000020F216820F0400041E802024AB12068A7
:101FA00050E8020F216820F0400041E80202002AB8
:101FB000DAD1D4F8800008B342F2BD71C0F6000156
:101FC0008163FEF799F900283FF418AED4F8800039
:101FD000816BBDE870400847A16F00297FF492AD86
:101FE0000CE600BFD1017FF509AEB0F1FF3FC8BFDD
:101FF00070BD2046BDE87040FFF796BB2046BDE8A7
:102000007040FFF769BD00BF401A00BF216851E86A
:10201000001F226821F4907142E80013DBB12168AF
:1020200051E8001F226821F4907142E8001393B137
:10203000216851E8001F226821F4907142E80013E2
:102040004BB1216851E8001F226821F4907142E8E9
:102050000013002BDAD14FF6FE71CEF6FF7100BFF0
:10206000226852E8022F23680A4043E80226C6B1DC
:10207000226852E8022F23680A4043E8022686B10C
:10208000226852E8022F23680A4043E8022646B13C
:10209000226852E8022F23680A4043E80226002EF5
:1020A000DED12021C4F88C100021E166616700BFF9
:1020B000216851E8001F226821F0100142E8001356
:1020C000DBB1216851E8001F226821F0100142E8CD
:1020D000001393B1216851E8001F226821F010011C
:1020E00042E800134BB1216851E8001F226821F03B
:1020F000100142E80013002BDAD1022281B22046FF
:102100002267BDE87040FFF70DBB00BF626F002A79
:102110003FF49BAE20469047216896E6B0B582B06A
:10212000B0B10446D0F8880028B9002084F88400B3
:10213000204600F059F82420C4F88800206801687F
:1021400021F001010160204600F0EEFC012803D1DE
:10215000012002B0B0BD00BFA06A10B1204600F05F
:10216000B9FA2068416821F490414160816821F00A
:102170002A018160016841F0010101600020C4F87A
:102180009000FEF75BFB216805460A6812070CD534
:102190006FF07E4C20464FF4001100222B46CDF804
:1021A00000C000F0F3FD78B92168086840070FD53A
:1021B0006FF07E4C20464FF4800100222B46CDF874
:1021C00000C000F0E3FD18B1032002B0B0BD00BFB5
:1021D0002020C4F88800C4F88C000020E066206746
:1021E00084F8840002B0B0BD2DE9F04194B00446FB
:1021F00001A808303021FDF7F3FF206843F6000105
:10220000C4F20101884203D014B0BDE8F08100BFE0
:10221000012001904FF44030029001A8FEF7C0FB6E
:10222000002818BFFEF728F84C20C5F600004169C9
:1022300040F2080841F4804141614169002601F4FF
:1022400080410F910F990168C4F2020841F0020128
:10225000016000680FA900F002000F900F98C020E5
:102260000F90022010900720139040F20040C4F617
:102270000000CDE91166FEF703FA40F21425C2F220
:1022800000051120C5E900804FF400508027286226
:102290002846C5E90266C5E90476C5E90666FEF783
:1022A000C5F8002818BFFDF7E7FFC4F88050AC62FE
:1022B00040F2742508F11400C2F200051221102228
:1022C00085E8C7002846C5E90566C5E90766FEF743
:1022D000ADF8002818BFFDF7CFFF24200021002211
:1022E000E567AC62FEF70EFB2420FEF7F7FA14B0A8
:1022F000BDE8F081B0B50446D0F88C0020281CBFA2
:102300000220B0BD96460A4600294FF0010018BFD2
:10231000BEF1000F00D1B0BD4FF0000CC4F86CC08E
:10232000216848F20000C4F20000814227D04868CA
:10233000000224D5206850E8000F216840F080603A
:1023400041E80003DBB1206850E8000F216840F04D
:10235000806041E8000393B1206850E8000F2168D5
:1023600040F0806041E800034BB1206850E8000F66
:10237000216840F0806041E80003002BDAD1222080
:10238000A265A4F85CE0C4F890C0C4F88C00D4F84E
:102390008000F8B142F6A911C0F6000142F60D33F3
:1023A00042F2CD7C00F12C07C0F60003C0F6000C11
:1023B00087E80A1021680025243173468563FEF7FB
:1023C000D3F838B11020C4F890002020C4F88C0055
:1023D0000120B0BD206928B3206850E8000F2168B3
:1023E00040F4807041E80002E2B1206850E8000F3C
:1023F000216840F4807041E800029AB1206850E8FA
:10240000000F216840F4807041E8000252B120685A
:1024100050E8000F216840F4807041E80002002A73
:10242000DAD100BF206850E8020F216840F00100B7
:1024300041E80202E2B1206850E8020F216840F052
:10244000010041E802029AB1206850E8020F2168B9
:1024500040F0010041E8020252B1206850E8020F4A
:10246000216840F0010041E80202002ADAD100BFF1
:10247000206850E8020F216840F0400041E8020265
:10248000DAB1206850E8020F216840F0400041E8CE
:10249000020292B1206850E8020F216840F040002B
:1024A00041E802024AB1206850E8020F216840F07A
:1024B000400041E80202002ADAD10020B0BD00004D
:1024C000704700007047000070470000FEE7000002
:1024D00080B582B04820C5F600000168002241F0B6
:1024E00004010160016801F0040100910099016894
:1024F00041F0010101600068002100F0010001903D
:1025000001980B20FEF7FEF90B20FEF7E7F90C20EF
:1025100000210022FEF7F6F90C2002B0BDE8804051
:10252000FEF7DCB92DE9F04387B000264C20059674
:10253000C5F60000016840F2004941F00201016067
:102540000168C4F6000901F00201069106990168CC
:10255000002241F00101016001684FF4847501F02F
:10256000010106910699016841F08001016001684E
:1025700001F0800106910699016841F004010160B3
:1025800000684FF4847100F00400069006984846F5
:10259000FEF74EF94FF09040072100224FF0070858
:1025A000FEF746F9019501AD012448462946CDE9DB
:1025B00002460496FEF764F841F2350001900327C5
:1025C00048462946CDE90276FEF75AF84FF090408A
:1025D0002946CDE90184CDE90366FEF751F849F6B5
:1025E000F870CDE901074FF0904029460396FEF7B9
:1025F00047F80820CDE9010709F5C05029460396A0
:10260000FEF73EF84FF46040CDE9010709F5806020
:1026100029460396FEF734F807B0BDE8F0830000C2
:10262000B0B540F2D42043F60001C2F20000C4F27B
:10263000010100230C244FF4E13280E80E00C0E9D0
:102640000333C0E90543C0E90733C0E90933FFF7A5
:1026500065FD002818BFFDF70FFE40F2D420C2F23E
:1026600000000021FFF7A8F8002818BFFDF704FEBE
:1026700040F2D420C2F200000021FFF757F80028F2
:1026800018BFFDF7F9FD40F2D425C2F20005284637
:10269000FFF72CF8002818BFFDF7EEFD2B6840F27D
:1026A00011011868C2F2000140F0100428464FF4EE
:1026B00000721C60BDE8B040FFF71CBEFEE70000E2
:1026C000FEE700007047000070470000FEF7BCB84E
:1026D0007047000080B5816ACA070DD18A0716D4F9
:1026E0004A071FD40A0728D4CA0631D48A063AD426
:1026F0004A0658D542E000BF0268D0F82CC05368A3
:1027000023F4003343EA0C0353608A07E8D50268D8
:10271000D0F830C0536823F4803343EA0C0353608D
:102720004A07DFD50268D0F834C0536823F4802309
:1027300043EA0C0353600A07D6D50268D0F838C0C4
:10274000536823F4004343EA0C035360CA06CDD513
:102750000268D0F83CC0936823F4805343EA0C032A
:1027600093608A06C4D50268D0F840C0936823F409
:10277000005343EA0C0393604A0614D50268D0F86C
:1027800044C05368BCF5801F23F4801343EA0C0354
:10279000536008D1D2F804C0D0F848E02CF4C0034C
:1027A00043EA0E035360090658BF80BD0168C06C40
:1027B0004A6822F400221043486080BD806A0021EC
:1027C000A0F85E10A0F85610FFF786B9806A02687C
:1027D000D0F88830D0F88CC09168090653D5212BE9
:1027E00051D10021A0F85610016851E8001F02687D
:1027F00021F0C00142E80013BBB3016851E8001F9B
:10280000026821F0C00142E8001373B3016851E887
:10281000001F026821F0C00142E800132BB30168D9
:1028200051E8001F026821F0C00142E80013002BAC
:10283000DAD11AE0016851E8021F026821F40001B0
:1028400042E80213DBB1016851E8021F026821F47B
:10285000000142E8021393B1016851E8021F0268C7
:1028600021F4000142E802134BB1016851E8021F54
:10287000026821F4000142E80213002BDAD1202182
:10288000C0F8881002689168490640F18480BCF164
:10289000220F40F080800021A0F85E10016851E80E
:1028A000001F026821F4907142E80013DBB1016857
:1028B00051E8001F026821F4907142E8001393B1BF
:1028C000016851E8001F026821F4907142E800138A
:1028D0004BB1016851E8001F026821F4907142E891
:1028E0000013002BDAD14FF6FE7CCEF6FF7C00BF42
:1028F000026852E8022F036802EA0C0243E8022150
:10290000D9B1016851E8021F026801EA0C0142E8EE
:10291000021393B1016851E8021F026801EA0C0139
:1029200042E802134BB1016851E8021F026801EA54
:102930000C0142E80213002BDAD1C16E012924D127
:10294000016851E8001F026821F0100142E80013FD
:10295000DBB1016851E8001F026821F0100142E874
:10296000001393B1016851E8001F026821F01001C3
:1029700042E800134BB1016851E8001F026821F0E2
:10298000100142E80013002BDAD12021C0F88C108E
:102990000021C1664167D0F8901041F01001C0F8E5
:1029A0009010FFF799B800000168806A09688906ED
:1029B00000F1A1800021A0F85E1000BF016851E87D
:1029C000001F026821F4807142E80013E3B101683E
:1029D00051E8001F026821F4807142E800139BB1A6
:1029E000016851E8001F026821F4807142E8001379
:1029F00053B1016851E8001F026821F4807142E878
:102A00000013002BDAD100BF016851E8021F0268F1
:102A100021F0010142E80213BBB3016851E8021F33
:102A2000026821F0010142E8021373B3016851E822
:102A3000021F026821F0010142E802132BB3016872
:102A400051E8021F026821F0010142E80213002B45
:102A5000DAD11AE0016851E8021F026821F0400152
:102A600042E80213DBB1016851E8021F026821F05D
:102A7000400142E8021393B1016851E8021F026865
:102A800021F0400142E802134BB1016851E8021FF6
:102A9000026821F0400142E80213002BDAD1202124
:102AA000C0F88C10C16E012925D100BF016851E822
:102AB000001F026821F0100142E80013DBB1016839
:102AC00051E8001F026821F0100142E8001393B1A1
:102AD000016851E8001F026821F0100142E800136C
:102AE0004BB1016851E8001F026821F0100142E873
:102AF0000013002BDAD100210167C16E012918BF34
:102B0000FFF7DEBCB0F85C10FEF70CBE806A012156
:102B10000167C16E012918BFFFF7D4BCB0F85C1083
:102B20004908FEF7FFBD000070B5054605F1080431
:102B30001ECC0068194341EA0403EE69046846F6B6
:102B4000F311CCF6FF712140194331430160416814
:102B500048F2000E21F4405111434160AA69C4F2C9
:102B6000000E70451CBF296A0A4381684FF2FF437B
:102B7000C1F2FF13194011438160C16AD5F824C026
:102B800044F2004221F00F01C4F2000241EA0C01BC
:102B90009042C1620ED0704512D043F60001C4F2DB
:102BA0000101884246D18821C5F600010A6873A355
:102BB0000FE000BF8821C5F6000109688A0804E01B
:102BC0008821C5F6000109688A0A43F2C413C0F6D9
:102BD000000302F0030153F82120704542F2004047
:102BE000C0F2F4002DD0B6F5004F11D1082A4FF0F5
:102BF000010100F2BA80DFE802F0056573B86BB836
:102C0000B8B87100FEF7EAF8002840F05E8063E093
:102C1000082A4FF0010100F2A880DFE802F0057FEA
:102C20008DA685A6A6A68B00FEF7D8F8002840F052
:102C300078807DE01022704542F20040C0F2F4003E
:102C4000D1D1082A4FF0010100F28F80DFE802F0B5
:102C5000068D148D0C8D8D8D120000BFFEF7BEF811
:102C600030B1D5F824C007E0FEF7F0F80028F8D11D
:102C700000217AE04FF4004043F2AC11C0F60001AD
:102C800031F81C106A68B0FBF1F002EB4201884297
:102C90004FF0010169D31303984266D8010E000278
:102CA00010EB520041F100010023FDF761FA4FF6ED
:102CB0000052A0F54071C0F20F0291424FD30121A2
:102CC00053E000BFFEF7A6F830B1D5F824C007E006
:102CD000FEF7BCF80028F8D1002146E04FF4004090
:102CE00043F2AC11C0F6000131F81C106A68B0FB69
:102CF000F1F0510801EB4000B0FBF2F04FF6EF723B
:102D0000A0F11001914207D84FF6F0710140C0F3D5
:102D10004200084423E000BF012126E0FEF77AF8D4
:102D200030B1D5F824C007E0FEF790F80028F8D1BC
:102D300000211AE04FF4004043F2AC11C0F600014C
:102D400031F81C104FF6EF72B0FBF1F0696800EB40
:102D50005100B0FBF1F0A0F11001914204D82968B4
:102D6000C860002101E000BF01214FF00110A866FA
:102D7000002208466A67AA6770BD00BF0100000014
:102D80000400000002000000080000002DE9F041EE
:102D9000044600681546C2690E461140891BB1FA07
:102DA00081F14909A94240F0A080DDF81880B8F10E
:102DB000000F29D018F1010140F08080C169314035
:102DC000891BB1FA81F14909A94240F08E80C1699D
:102DD0003140891BB1FA81F14909A94240F085804F
:102DE000C1693140891BB1FA81F14909A9427CD1FD
:102DF000C1693140891BB1FA81F14909A942DDD08D
:102E00000020BDE8F08100BFFDF718FD206850E804
:102E1000000F216820F4D07041E80002BAB32068A6
:102E200050E8000F216820F4D07041E8000272B32E
:102E3000206850E8000F216820F4D07041E80002BB
:102E40002AB3206850E8000F216820F4D07041E8D0
:102E50000002002ADAD11AE0206850E8020F216847
:102E600020F0010041E80202DAB1206850E8020FC8
:102E7000216820F0010041E8020292B1206850E888
:102E8000020F216820F0010041E802024AB12068E7
:102E900050E8020F216820F0010041E80202002AF8
:102EA000DAD12020C4F8880004F18C0020210160D0
:102EB000002084F884000320BDE8F0811F4600BF95
:102EC000FDF7BCFCC01B4045A0D82068016849073D
:102ED00044BFC1695FEA01510AD4C0693040801B18
:102EE000B0FA80F04009A842EAD00020BDE8F081A5
:102EF0004FF40061016200BF206850E8000F2168B4
:102F000020F4D07041E80002BAB3206850E8000F06
:102F1000216820F4D07041E8000272B3206850E8C4
:102F2000000F216820F4D07041E800022AB3206825
:102F300050E8000F216820F4D07041E80002002A18
:102F4000DAD11AE0206850E8020F216820F0010071
:102F500041E80202DAB1206850E8020F216820F04F
:102F6000010041E8020292B1206850E8020F216896
:102F700020F0010041E802024AB1206850E8020F47
:102F8000216820F0010041E80202002ADAD1202065
:102F9000C4F88800C4F88C0004F1900086E70000B3
:102FA000B0B540F2D424C2F2000443F60005204636
:102FB000C4F20105FEF792FD2068A84218BFB0BD1B
:102FC000E869C00600D4B0BD40F2D4241020C2F29B
:102FD000000428622046FEF739FC40F21420C2F2B9
:102FE0000000006840F211214068C2F20001404236
:102FF00008700B7840F21005C2F2000540F2110192
:10300000002B18BF0123C2F2000120464FF40072CA
:103010002B70BDE8B040FFF76DB90000FEE700007F
:103020009AB0FDF71FFC08AC201D2821FDF7D8F849
:10303000002540F20040CDE90655CDE90455CDE923
:103040000255C5F600000168012262F34A210160C1
:1030500000684FF4807100F4C06001900198022074
:103060000890CDE91300062016904FF40030179019
:103070004FF0005019904FF000700C9140211890C3
:1030800020460D911595FDF75BFF28B1EFF31080F9
:1030900072B600BFFEE700BF4F2002900320CDE9CB
:1030A000030502A80221CDE905550795FDF782FD2C
:1030B00020B1EFF3108072B6FEE700BFFFF732FADF
:1030C000FFF706FAFFF7ACFA40F20044C4F600043A
:1030D00020460821FDF7A4FB4FF47A70FDF7BCFAF7
:1030E000F6E702E008C8121F08C1002AFAD17047AB
:1030F0007047002001E001C1121F002AFBD1704778
:1031000000000000010000000200000001000000BB
:1031100003000000050000000100000001000000A5
:10312000060000000A00000020000000020000006D
:103130000400000008000000100000004000000033
:1031400080000000000100000002000000000000FC
:10315000000000000000000000000000010000006E
:10316000020000000300000004000000A08601002F
:10317000400D0300801A060000350C0040420F008D
:1031800080841E0000093D0000127A000024F40033
:1031900000366E010048E801006CDC02000000000F
:1031A000000000000000000000000000010002001C
:1031B0000400060008000A000C0010002000400077
:1031C0008000000100000000040000000200000078
:1031D00008000000010101030701000008040204C7
:1031E0000801010108320008000000201000000062
:1031F000E2300008183200081000002060070000CC
:10320000F230000800000000010000001000000083
:0832100000093D000000000070
:0400000508000139B5
:00000001FF
