:020000040800F2
:10000000380C00204D010008C93200087D3000087E
:10001000C5320008590200083D48000800000000F1
:10002000000000000000000000000000E93E0008A1
:1000300075020008000000001D3C0008ED3E0008AD
:1000400067010008670100086701000867010008F0
:1000500067010008670100086701000867010008E0
:100060006701000867010008670100085D020008D9
:1000700069020008670100086701000867010008BD
:1000800067010008670100086701000867010008B0
:100090000000000067010008670100086701000810
:1000A0006701000867010008670100086701000890
:1000B0006701000867010008670100086701000880
:1000C0006701000867010008670100086701000870
:1000D000C1470008670100086701000867010008C0
:1000E0006701000867010008670100086701000850
:1000F0006701000800000000000000006701000820
:10010000670100086701000867010008670100082F
:10011000670100086701000867010008670100081F
:10012000670100086701000867010008670100080F
:100130006701000867010008DFF80CD000F07AF8CA
:100140000048004761480008380C002006488047F6
:1001500006480047FEE7FEE7FEE7FEE7FEE7FEE7AC
:10016000FEE7FEE7FEE7FEE7F13E00083901000882
:100170002DE9F05F0546002092469B4688460646DC
:10018000814640241BE0284641464746224600F06F
:1001900041F853465A46C01A914110D311461846A9
:1001A000224600F028F82D1A67EB01084F46224638
:1001B0000120002100F01FF817EB00094E41201E1E
:1001C000A4F10104DFDC484631462A464346BDE837
:1001D000F09FD2B201E000F8012B491EFBD270471C
:1001E0000022F6E710B513460A4604461946FFF703
:1001F000F0FF204610BD202A04DB203A00FA02F16D
:10020000002070479140C2F1200320FA03F3194304
:1002100090407047202A04DB203A21FA02F00021A6
:10022000704721FA02F3D040C2F120029140084306
:1002300019467047064C074D06E0E06840F00103A0
:1002400094E8070098471034AC42F6D3FFF778FFE4
:10025000E886000808870008FEE7000040F25440E6
:10026000C2F2000000F0D2BB40F2B440C2F2000083
:1002700000F0CCBB7047000070B582B005460C465C
:1002800000696969431E4E1E28460021002200961F
:1002900000F066FA28460021002200F0A9FA6868FA
:1002A000002100F0F3FA242000F016FBD5E9040148
:1002B000C21700EB5270C0104843012811DB002622
:1002C0006868012100F0E2FA204600F005FBD5E95C
:1002D00004010136C21700EB5270C0104843864239
:1002E000EEDB02B070BD0000084600F0BBBA0000B3
:1002F00010B504464068002100F0C8FA222000F042
:10030000EBFA6068012100F0C1FAC42000F0E4FAC1
:100310006068002100F0BAFA202000F0DDFA606881
:10032000002100F0B3FAFF2000F0D6FAE06800F0F8
:100330009BFA012818BF10BD642000F093FAE06812
:1003400000F092FA0128F7D010BD0000F0B581B09E
:10035000044601204FF494750F4602210022032326
:10036000802684E84F00656100F0A0FA20B14FF0CC
:10037000FF35284601B0F0BD20680021A7610025A7
:1003800000F084FAC82000F06DFA2068012100F026
:100390007DFAC82000F066FA6068002100F076FA65
:1003A000012000F099FA6068012100F06FFA27201F
:1003B00000F092FA6068012100F068FA012000F074
:1003C0008BFA6068012100F061FA002000F084FAE5
:1003D0006068002100F05AFA0C2000F07DFA606895
:1003E000012100F053FAD72000F076FA606801216D
:1003F00000F04CFAD62000F06FFA6068012100F09E
:1004000045FA9D2000F068FA6068002100F03EFA8D
:100410002C2000F061FA6068012100F037FAA82072
:1004200000F05AFA6068002100F030FA3A2000F03B
:1004300053FA6068012100F029FA1A2000F04CFA02
:100440006068002100F022FA3B2000F045FA606865
:10045000012100F01BFA082000F03EFA606800213C
:1004600000F014FA112000F037FA6068012100F062
:100470000DFA032000F030FA6068002100F006FA5F
:10048000322000F029FAA16960680E78012100F09D
:10049000FDF9304600F020FAA16960684E7801212C
:1004A00000F0F4F9304600F017FAA16960688E7820
:1004B000012100F0EBF9304600F00EFAA169606806
:1004C000CE78012100F0E2F9304600F005FAA1698A
:1004D00060680E79012100F0D9F9304600F0FCF98E
:1004E000A16960684E79012100F0D0F9304600F032
:1004F000F3F9A16960688E79012100F0C7F93046EF
:1005000000F0EAF9A1696068CE79012100F0BEF936
:10051000304600F0E1F9A16960680E7A012100F02F
:10052000B5F9304600F0D8F9A16960684E7A01212A
:1005300000F0ACF9304600F0CFF9A16960688E7A1E
:10054000012100F0A3F9304600F0C6F9A169606806
:10055000CE7A012100F09AF9304600F0BDF9A16988
:1005600060680E7B012100F091F9304600F0B4F98B
:10057000A16960684E7B012100F088F9304600F0E7
:10058000ABF9A16960688E7B012100F07FF93046EC
:1005900000F0A2F9A1696068CE7B012100F076F934
:1005A000304600F099F9A16960680E7C012100F0E5
:1005B0006DF9304600F090F9A16960684E7C012128
:1005C00000F064F9304600F087F9A16960688E7C1C
:1005D000012100F05BF9304600F07EF9A169606806
:1005E000CE7C012100F052F9304600F075F9A16986
:1005F00060680E7D012100F049F9304600F06CF989
:10060000A16960684E7D012100F040F9304600F09C
:1006100063F9A16960688E7D012100F037F93046E9
:1006200000F05AF9A1696068CE7D012100F02EF931
:10063000304600F051F9A16960680E7E012100F09A
:1006400025F9304600F048F9A16960684E7E012125
:1006500000F01CF9304600F03FF9A16960688E7E19
:10066000012100F013F9304600F036F9A169606805
:10067000CE7E012100F00AF9304600F02DF9A16983
:1006800060680E7F012100F001F9304600F024F986
:10069000A16960684C7F012100F0F8F8204600F065
:1006A0001BF9284601B0F0BD2DE9F04F83B00029B9
:1006B00052D089460446DDE90C109A4613430B4399
:1006C000034349D402F0F80701F0F808D4E90465BF
:1006D00008EB0701B1425044B8BF0E46731EA84252
:1006E000B8BF0546A5F1010C204639465246CDF863
:1006F00000C000F035F820463946524600F078F840
:100700006068002100F0C2F8242000F0E5F85545AB
:1007100022DDF01B08281FDBC11700EB5170C01051
:100720004FEAD808A5EB0A0AA9F1010900270290AF
:10073000DDF808B04E4600BF606816F8015F012181
:1007400000F0A4F8284600F0C7F8BBF1010BF3D184
:1007500001375745C144EBD103B0BDE8F08F00002D
:100760002DE9F04104464068DDF818800F4600216D
:100770001E46154600F08AF8442000F0ADF8606887
:10078000012100F083F8C7F3C70000F0A5F8606806
:10079000012100F07BF8C6F3C70000F09DF8606807
:1007A000002100F073F8452000F096F86068012100
:1007B00000F06CF8E8B200F08FF86068012100F0FA
:1007C00065F8C5F3072000F087F86068012100F0A4
:1007D0005DF85FFA88F000F07FF86068012100F0B2
:1007E00055F8C8F30720BDE8F04100F075B80000E7
:1007F00070B5044640680E460021154600F046F8E4
:100800004E2000F069F86068012100F03FF8C6F35F
:10081000C70000F061F86068002100F037F84F2051
:1008200000F05AF86068012100F030F8E8B200F0FA
:1008300053F86068012100F029F8C5F3072000F0A3
:100840004BF8E06800F010F8012818BF70BD00BF39
:10085000642000F007F8E06800F006F80128F7D0FF
:1008600070BD000000F048BA80B540F21061C2F2DD
:10087000000101EBC00251F83000918800F020FB2C
:100880000138B0FA80F0400980BD00000139B1FAAA
:1008900081F14A0940F21061C2F2000101EBC0038C
:1008A00051F83000998800F011BB0000F0B540F21B
:1008B0001800C2F2000040F2106100F11007C2F20D
:1008C0000001F0CF90E80C5001F1100070C0002042
:1008D00081E80C50CF61F0BD10B582B040F21064D9
:1008E000C2F200042268A1888DF807001046002299
:1008F00000F0ECFA40F21450C2F200000DF10701D2
:1009000001224FF47A7301F001FB2068A1880122D3
:1009100000F0DCFA02B010BDEFF3108072B600BF39
:10092000FEE70000002804BF0120704780B590F862
:100930002510022926D10168D0E910CE826C0B68FF
:1009400023F00E030B60136823F4807313600A68AE
:1009500022F001020A600EF01C02012101FA02F2EB
:10096000CCF80420D0E913325A60426D32B11368DA
:1009700023F480731360D0E91623536080F82510A8
:10098000002102E00421C1630121002280F824201B
:10099000BDE880400846704780B590F825100229D0
:1009A0002ED10168D0E910CE826C0B6823F00E03C3
:1009B0000B600B6823F001030B60116821F4807158
:1009C00011600EF01C02012101FA02F2CCF80420A1
:1009D000D0E913325A60426D32B1136823F4807348
:1009E0001360D0E91623536080F82510826B002134
:1009F00080F824100AB190470021084680BD00BF4E
:100A00000421C163012080BDC06B704770B5D0E97F
:100A100010C20168DCF8004002F01C0304220E68DA
:100A20009A40224218BF16F0040525D1022202FA8C
:100A300003FE1EEA040F18BF16F002022AD124FAA0
:100A400003F2120724D516F0080208BF70BD0A6829
:100A500022F00E020A60012101FA03F2CCF8042010
:100A6000C16380F82510416B002280F8242079B101
:100A7000BDE87040084700BF0B689B0603D40B68B5
:100A800023F004030B60CCF80420016B0029EFD1A4
:100A900070BD00BF0A68920606D40A6822F00A02F6
:100AA0000A60012280F825200422C4F2020202F129
:100AB0007C03994288BF02F58062C2F800E0C16AF7
:100AC0000022002980F82420D2D1E1E72DE9F04F5F
:100AD00081B000284FF0010E00F092800021C4F296
:100AE000020103684FF6F83401F58169CBF6FD7415
:100AF0000A464B4538BF04F580644CF6CD411C4492
:100B0000CCF6CC41A4FB015703F0FC0540F6840869
:100B1000A5F10805C4F202080097A5FB015611468D
:100B200002F58062A8F16807D0E902CAD0F810B0D7
:100B30003CBF0022C4F202024B4538BF01F50067FA
:100B400000996FF0030404EA9104C0E91024022222
:100B500080F825201A6847F6F075AA431A604269A2
:100B60004AEA0B0581692A43C5691143026A294390
:100B70001D681143294341EA0C011960072101EB6B
:100B800016114B4538BF3109A8F1040301F01F01CC
:100B90003A19C3640EFA01F3BCF5804F8264036511
:100BA00006D1002141601160C8F800301AE000BF92
:100BB000416801F07F04013903294FF000011460FE
:100BC000C8F800300ED8621E08EB820747F87C1F79
:100BD00002F0030101228A4008F1BC033946C8F83B
:100BE000C02001E000230022C0E915134FF0000EE1
:100BF0000121C265C0F83CE080F8251080F824E0AF
:100C0000704601B0BDE8F08F2DE9F04190F824C0A6
:100C1000BCF1010F04BF0220BDE8F0814FF0010CD0
:100C200080F824C090F825C0BCF1010F38D14FF0F6
:100C3000020C80F825C04FF0000CC0F83CC0D0F882
:100C400000C000F14C0E9EE83040DCF80060BEF1C0
:100C5000000F26F00106CCF8006065601CBFD0E9EB
:100C600016456560D0E91076012506F01C068468FB
:100C7000B540D0F830807D60CCF804300B46102CA5
:100C800004BF13460A46CCF80830CCF80C20DCF838
:100C90000010B8F1000F0BD041F00E0110E000BFC2
:100CA0008021C163002180F824100120BDE8F0817B
:100CB00021F00401CCF80010DCF8001041F00A012A
:100CC000CCF80010806C0168C90303D5016841F4B9
:100CD00080710160BEF1000F05D0DEF8000040F425
:100CE0008070CEF80000DCF8000040F00100CCF885
:100CF00000000020BDE8F081B0B5044600F0ECF83B
:100D0000054640F20C00C2F200000078611C18BFDA
:100D1000044400BF00F0E0F8401BA042FAD3B0BD8D
:100D20002DE9F04F81B00E68002E00F0C58040F62E
:100D30000003C4F6000398424FF007024FF000038F
:100D40004FF001074FF0000B4FF0000508BF0222E3
:100D500000924FE040F20042C4F60002DDF800E0ED
:100D6000904208BF4FF0010E0BF00C060724B44070
:100D70002CEA04040EFA06F60827AA082643C4F251
:100D8000010740F6000C47F82260C5F6000CDCF8BD
:100D900000204E6842EA0804F70258BF22EA08041D
:100DA000CCF80040DCF80420B40242EA080758BF3F
:100DB00022EA0807CCF80470DCF88020F40342EA49
:100DC000080758BF22EA0807CCF88070DCF88420B6
:100DD000B60342EA080758BF22EA0807CCF8847035
:100DE00001270E68013536FA05F20BF1040B03F109
:100DF000020361D007FA05FE16EA0E08F1D0D1F819
:100E000004A003220AF0030CACF1010402FA03F679
:100E1000012C6FEA06090FD88468CE6804EA090439
:100E20009E4034438460446824EA0E06CAF30014EA
:100E3000AC402643466005E0BCF1030F02D14FF001
:100E4000030C21E0C6688C6806EA09069C4026432C
:100E5000BCF1020FC66017D16FF0030202EA55061B
:100E600006440BF01C020F24D6F820C004FA02FE40
:100E70000C692CEA0E0C04FA02F242EA0C0232620D
:100E8000D1F804A00AF0030C02680CFA03F602EA97
:100E9000090232431AF4403F0260A2D0082725F02D
:100EA0000302C4F2010752F807C0B0F1904F7FF47B
:100EB00051AF4FF0000E57E701B0BDE8F08F0000D2
:100EC0000069084018BF0120704700001823002A5D
:100ED00008BF2823C150704740F23060C2F20000C2
:100EE0000068704740F20C0040F23061C2F200002E
:100EF000C2F2000100780A681044086070470000E0
:100F000080B5032000F078F800F0A4FA40F2480120
:100F1000C2F2000108600F2000F008F800281CBF92
:100F2000012080BD00F026F8002080BD70B540F2A1
:100F30000C06C2F200063178D1B1044600F08AFAFC
:100F400031784FF47A72B2FBF1F1B0FBF1F001F0BD
:100F500029F90F2C4FF0010508D838B94FF0FF30B0
:100F600021460022002500F01BF87460284670BD61
:100F7000012070BD70470000002848BF7047C1B213
:100F800000F01F00012202FA00F04EF20012CEF231
:100F9000000242EAD10121F003010860704700001D
:100FA00010B54EF60C5CCEF2000CDCF80030C3F34A
:100FB000022E8EF00704042C28BF0424BEF1030384
:100FC0004FF0FF3E0EFA04F438BF0023A1439940CE
:100FD0000EFA03F39A43114300F00F0200F160434D
:100FE0000901043A03F564436244002848BF02F152
:100FF0000C03197010BD00004EF60C51CEF200012A
:101000000A684FF6FF031A4060F30A2242F080603C
:1010100040F0FD700860704740F20040C5F60000E7
:10102000006800F4C060704740F20040C5F6000060
:10103000016841F48071016070470000F0B581B033
:10104000044680788826C007C5F6000600F0AC800C
:10105000FFF7EAFFFFF740FF054600BFD6F8780329
:10106000C00577D4FFF738FF401B0228F6D90320CC
:101070002168CA0700F09D806268336823EA124342
:1010800092B21A4332608A0740F19680A2683368B0
:1010900023EA124392B21A4332608A0640F18F80EB
:1010A0002269336823F440631A4332608A0540F1B1
:1010B0008980226A33684FF6FF7767EA02073B4070
:1010C00043EA024232604A0540F17F80626A336837
:1010D0004FF6FF7767EA02073B4043EA024232607D
:1010E0000A0575D5A26A33684FF6FF7767EA0207EB
:1010F0003B4043EA024232604A066BD5626933687C
:101100006FF47F2767EA12173B4002F47F4243EAFD
:10111000021232600A065FD5A26933686FF47F2736
:1011200067EA12173B4002F47F4243EA0212326040
:10113000CA0553D5E26933686FF47F2767EA12174F
:101140003B4002F47F4243EA02123260CA0657D59E
:1011500046E000BFB168606B01F4407181421ED06F
:10116000B168B26821F4407342F48032B260B26870
:10117000890722F480320146B260B3600FD5FFF7D1
:10118000ABFE054641F28837B068800706D4FFF70A
:10119000A3FE401BB842F7D969E700BF616BB06896
:1011A00020F440700843B06000202168CA077FF433
:1011B00063AF8A073FF56AAF8A063FF571AF8A05CC
:1011C0003FF577AF4A053FF581AF0A053FF58AAF96
:1011D0004A0693D40A069FD4CA05ABD4CA060FD5D3
:1011E000E2683368B2F5807F23F4407343EA020378
:1011F000336005D156F87C2C42F0807246F87C2C86
:101200000A0407D5226B336823F0404343EA020304
:1012100033609AB1490419D5E16A3268B1F1005FCF
:1012200022F0405242EA010232600FD156F87C1C93
:1012300041F4803146F87C1C08E000BF56F87C2C55
:1012400042F0807246F87C2C4904E5D401B0F0BD30
:101250002DE9F04381B0002800F0B38044F200088B
:10126000C5F600080546D8F800000C4600F0070057
:10127000884215D2D8F8000020F007002043C8F8B3
:101280000000FFF729FE0646D8F8000000F007002E
:10129000A04205D0FFF720FE801B0228F4D95FE0B2
:1012A000286808278107C5F6000714D5A86839689B
:1012B00021F0F00108433860FFF70EFE064600BF3C
:1012C0003868C00306D4FFF707FE801B0228F7D951
:1012D00046E000BF2868410617D56869D7F80011B5
:1012E00021F00F0141EA1010C7F80001FFF7F4FDEB
:1012F000064600BFD7F80001C00305D4FFF7ECFD98
:10130000801B0228F6D92BE02868410713D5E8682E
:10131000396821F4E06108433860FFF7DDFD0646D7
:101320003868800306D4FFF7D7FD801B0228F7D961
:1013300016E000BF2868010717D52869396821F42D
:10134000605141EAC0003860FFF7C6FD064600BFA5
:101350003868400308D4FFF7BFFD801B0228F7D987
:10136000032001B0BDE8F0832868C0071ED1D8F87B
:10137000000000F00700A04228D9D8F8000020F0B3
:1013800007002043C8F80000FFF7A6FD054600BF90
:10139000D8F8000000F00700A04217D0FFF79CFD2E
:1013A000401B02284FF00300F2D947E068684FF075
:1013B000B04138B3032845D0022847D109688903D2
:1013C00023D4012001B0BDE8F08300BF00F08CF809
:1013D00039683C2202EA910144F6A842C0F60002B4
:1013E000515840F24802B0FBF1F140F21000C2F255
:1013F00000000068C2F20002116001B0BDE8F043D5
:10140000FFF794BD09688907DBD5396821F003012E
:1014100008433860FFF760FD064641F2883900BF97
:101420003868696800F00C00B0EB810F9FD0FFF7BF
:1014300053FD801B48454FF00300F1D901B0BDE8D2
:10144000F08300BF09688901BBD5DEE7096849055B
:10145000B7D5DAE780B500F047F80821C5F60001F6
:1014600009683C2202EA910144F6A842C0F6000253
:101470005158B0FBF1F080BD80B500F035F808217F
:10148000C5F600010A683C2303EA920244F6A84329
:10149000C0F600039A580968B0FBF2F044F6E8423F
:1014A000C1F30221C0F6000252F82110C84080BDED
:1014B00080B500F019F80821C5F600010A683C2340
:1014C00003EA920244F6A843C0F600039A5809685A
:1014D000B0FBF2F044F6E842C1F3C221C0F60002CC
:1014E00052F82110C84080BD0C21C5F6000151F80A
:1014F000040C10F00C02086805D00C2A16D100F07C
:101500000300012812D14FF0B040036800681B07A8
:1015100000F0080006D4D8B9D1F88800C0F3032041
:1015200021E000BFD0B9D1F8880014E042F20040B9
:10153000042AC0F2F40022D0082A1FD14FF0B04292
:101540001268D2025CBF44F60000C0F2E81016E058
:101550004FF0B0400068002005E000BF4FF0B04001
:101560000068C0F3031048F22063C0F6000353F88C
:101570002030002A184618BF002001E00020002378
:1015800051F8042C02F00C020C2A18BF70470868AE
:1015900000F0030242F20040022AC0F2F4000AD036
:1015A000032A09D14FF0B0421268D2025CBF44F660
:1015B0000000C0F2E810034608680A68C0F306207D
:1015C000C2F30212584301320968B0FBF2F0012263
:1015D00002EB5171B0FBF1F0704700002DE9F04FC4
:1015E00081B0002800F0188340F2900B0446C5F645
:1015F000000B5BF8880C5BF8841C227800F00C0868
:10160000900601F0030A27D42078C0075AD0B8F119
:10161000080F53D0B8F10C0F08BFBAF1030F4DD02B
:101620004FF0B040016821F48012D4E901131A434D
:10163000B1F5803F026009D0B1F5041F40F034825B
:101640004FF0B0410A6842F400120A60016841F4A8
:101650008031016035E200BFB8F1000F1ED0B8F153
:101660000C0F08BFBAF1010F18D0216A4FF0B04635
:101670003068002900F0668140F001003060FFF71B
:101680002BFC05463068800700F18481FFF724FCBD
:10169000401B02284FF00300F4D95BE3206A0028C6
:1016A00000F0BA824FF0B041A06A0A68120700F158
:1016B000D180DBF804100909CDE000BF6068002884
:1016C00000F0AA82207880072FD5B8F1040F1FD030
:1016D000B8F10C0F08BFBAF1020F19D021694FF011
:1016E000B0463068002900F0FD8140F48070306021
:1016F000FFF7F2FB054600BF306840050CD4FFF74A
:10170000EBFB401B02284FF00300F5D922E300BF9A
:101710002069002800F0808260695BF88C1C21F051
:10172000FE4141EA00604BF88C0C2078000729D478
:101730002078400750D4E56A002D00F0AA82B8F165
:101740000C0F40F03D81012D00F066825BF8840CA7
:10175000216B00F003028A4240F05E82616B00F070
:1017600070028A4240F05882A16B00F4FE42B2EB54
:10177000012F40F05182616C00F06040884240F0DF
:101780004B8286E2A069DBF80410002800F0EC80B0
:10179000E06901F01002904200F0C68201F00302FD
:1017A000022A00F03982C90700F0B782DBF8040092
:1017B00020F00100CBF80400FFF78EFB0546DBF8B4
:1017C0000400800740F1A882FFF786FB401B112828
:1017D0004FF00300F3D9BDE2DBF87003C00511D46C
:1017E000FFF722FCFFF778FB054600BFDBF870032C
:1017F000C00507D4FFF770FB401B02284FF0030021
:10180000F4D9A7E2E068002800F07E81852801D0A5
:10181000052805D1DBF8000040F00400CBF80000FB
:10182000FFF75AFBDBF80010054641F0010041F2DA
:101830008836CBF8000000BFDBF80000800700F11D
:101840001381FFF749FB401BB0424FF00300F3D96F
:1018500080E200BF096801F0F00144F6A84988421F
:10186000C0F600092CD93C2101EA900048F2206121
:10187000DBF87820C0F60001085802F00F0159F893
:101880002110B0FBF1F5FFF7C7FBB0F5007F40F08A
:10189000BB804EF6BF20C0F22110854240F2E080AE
:1018A00049F23F30C0F23420854240F247814AF687
:1018B0003F60C0F2EB20854240F2BA80002644E14E
:1018C0004FF0B0410A6842F008020A600A6822F04C
:1018D000F00202430A60616A5BF88C2C22F47F42BA
:1018E00042EA01214BF88C1C3C2101EA900048F2AD
:1018F0002061DBF87820C0F60001085802F00F01E3
:1019000059F82110B0FBF1F5FFF786FBB0F5007F29
:1019100040F090804EF6BF20C0F22110854240F288
:10192000A18049F23F30C0F23420854240F2568116
:101930004AF63F60C0F2EB20854240F28F800026DD
:1019400053E100BF20F001003060FFF7C5FA054603
:10195000306880077FF558AEFFF7BEFA401B0228BB
:101960004FF00300F4D9F5E121F00100CBF80400B9
:10197000FFF7B2FA054600BFDBF8040080077FF5E9
:10198000D7AEFFF7A9FA401B11284FF00300F3D997
:10199000E0E100BF4FF0B040016841F00801016094
:1019A0000168D4E9093221F0F001114301605BF8CC
:1019B0008C0C20F47F4040EA03204BF88C0C23E68B
:1019C0004FF0B046306820F080703060FFF784FA46
:1019D000022D05460CD100BF3068800140F1208106
:1019E000FFF77AFA401B0A284FF00300F4D9B1E15F
:1019F0003068800140F14481FFF76EFA401B0A28ED
:101A00004FF00300F4D9A5E14CF6BF70C0F26A00B4
:101A1000854225D945F63F50C0F2C600854240F2C6
:101A20008D8046F23F60C0F2031085423FF646AF1C
:101A3000022084E04CF6BF70C0F26A00854211D9E2
:101A400045F63F50C0F2C600854240F2C78046F2DC
:101A50003F60C0F2031085423FF671AF0220BEE046
:101A600000206CE00020BAE0E06840F00400852827
:101A700040F01481FFF730FADBF80010054641F022
:101A8000800041F28836CBF8000000BFDBF8000090
:101A900000053FF550AEFFF71FFA401BB0424FF074
:101AA0000300F3D956E100BF4FF0B046306800297B
:101AB00020F480303060306820F40010306000F096
:101AC0000581FFF709FA05464FF0B04630688003FC
:101AD0003FF5F8ADFFF700FA401B64284FF0030014
:101AE000F4D937E120F480703060FFF7F5F905464E
:101AF000306840057FF519AEFFF7EEF9401B02286C
:101B00004FF00300F4D925E1FFF7E6F9DBF8001008
:101B1000064621F0800041F28837CBF8000000BF74
:101B2000DBF80050FFF7D8F92905054640F1DE80C3
:101B3000A81BB8424FF00300F2D90BE1012044F694
:101B40009C41C0F6000151F8206044F20007C5F640
:101B50000007386820F0070030433860FFF7BCF911
:101B6000054600BF386800F00700B04206D0FFF716
:101B7000B3F9401B0228F5D94EE000BF4FF0B0404A
:101B8000016841F0080101600168D4E9093221F0DF
:101B9000F001114301605BF88C0C20F47F4040EAB7
:101BA00003204BF88C0CFFF79FFC5BF8881C3C2251
:101BB00002EA910159F8011040F24802B0FBF1F13C
:101BC00040F21000C2F200000068C2F20002116090
:101BD000FFF7ACF9002840F0BD8015E5012044F680
:101BE0009C41C0F6000151F8206044F20007C5F6A0
:101BF0000007386820F0070030433860FFF76CF9C1
:101C0000054600BF386800F00700B042CBD0FFF7B0
:101C100063F9401B0228F5D9012001B0BDE8F08F1F
:101C20005BF8840C48F28C01C1F2C11104F1300759
:101C300008408ECFD4E910650843104340EA0320E2
:101C40003843304328434BF8840C4FF0B0452868A4
:101C500040F0807028605BF8840C40F080504BF8B6
:101C6000840CFFF739F904462868800111D4FFF786
:101C700033F9001B0A284FF00300F5D96AE000BFD2
:101C80005BF8840C4FF6FC71CEF6FE6108404BF811
:101C9000840C002001B0BDE8F08F00BFFFF71CF9F5
:101CA000DBF80010054621F0800041F28836CBF8C1
:101CB0000000DBF8000000057FF53DADFFF70CF9F3
:101CC000401BB0424FF00300F3D943E0FFF704F9A3
:101CD0000546306880037FF5F5ACFFF7FDF8401B43
:101CE00064284FF00300F4D934E000BFDBF80000B3
:101CF00041F2883620F00100CBF80000DBF800004C
:101D000080077FF518ADFFF7E7F8401BB0424FF0B2
:101D10000300F3D91EE000BFE069DBF8041021F0F6
:101D200010010843CBF80400DBF8040040F0010088
:101D3000CBF80400FFF7D0F8054600BFDBF804003D
:101D400080073FF5F5ACFFF7C7F8401B11284FF0AF
:101D50000300F3D901B0BDE8F08F0000002804BFF4
:101D60000120704770B50446406A28B10020206108
:101D700004F1140006E000BF6068B0F5827F03D074
:101D800004F11C000021016094F85D0028B90020D6
:101D900084F85C00204600F06DF8022084F85D00B5
:101DA0002068D4F80CE00168BEF5E06F21F0400136
:101DB00001604FF000024EF4006198BF0122B1F5BE
:101DC000706F4FF0000118BFA1624FEA023CD4E9E6
:101DD0000112D4E9043501F4827102F40442114481
:101DE00003F002021144A26905F00103E5691944F8
:101DF00002F40073194405F03803256AA66A1944F1
:101E000005F08005294406F400552943B6F5005F26
:101E100001600FD1216B022905D059B9BEF5E06FE1
:101E200006D902212163016841F40061016001E0EB
:101E300001212163042101EA1241626A0EF47063F8
:101E4000656B43EA0C0302F01002194305F0080524
:101E5000114329434160B6F5005F04BFA18D0161C4
:101E6000C16921F40061C16100200121206684F86C
:101E70005D1070BD2DE9F04186B0006843F20001AD
:101E8000C4F20101884203D006B0BDE8F08100BF72
:101E90004C20C5F60000416901AC41F4805141611C
:101EA00041694FF0200801F48051019101990168C6
:101EB000022641F0020101600168002701F00201E1
:101EC000019101990168052541F001010160006857
:101ED000214600F001000190019840F20040C4F654
:101EE0000000CDF804800296CDE903770595FEF752
:101EF00017FF4FF090402146CDE90186CDE90377E9
:101F00000595FEF70DFF06B0BDE8F0812DE9F04321
:101F100083B0044690F85C00012803D1022003B08E
:101F2000BDE8F0834FF001091D4616460F4684F8C0
:101F30005C90FEF7D1FF94F85D10012944D18046F2
:101F4000002F4FF0010018BF002E00F00181032088
:101F500084F85D0000202066A763A687E6872064DA
:101F6000A4F84400A4F84600A168C4E91300B1F540
:101F7000004F59D0A16A2068B1F5005F62D00168B6
:101F8000490603D4016841F0400101606168731E95
:101F9000E268B1FA81F1B3FA83F349095B09B2F55A
:101FA000E06F41EA030159D931B137F8021BC16032
:101FB000A763E08F0138E087E08F002800F08E8073
:101FC000681C0ED11FE000BF0220C1E0A16B31F8F8
:101FD000022BC260A163E08F0138E087E08F002808
:101FE0007CD0206881688907F0D4FEF775FFA0EBEC
:101FF0000800A842F2D30320AAE000BFFEF76CFF5E
:10200000E08F00286AD0206881688907F6D5A16B27
:1020100031F8022BC260A163E08F0138E087E08FC6
:102020000028F0D15AE000BF2068016821F040018B
:102030000160016841F480410160A16A2068B1F546
:10204000005F9CD1016821F400510160016841F4F6
:10205000005101600168490694D597E789B1E18F85
:1020600002294FF6FE7103D337F8022BC26004E059
:102070003A7801310273A06B471CA763E08F0844D4
:10208000E087E08F50B3681C6FD04FF6FE70461C9F
:1020900009E000BFFEF720FFA0EB0800A84280F097
:1020A0007F80E08FD0B1216888688007F2D5E28F09
:1020B000A06B022A06D330F8022BCA604FF6FE71DD
:1020C00005E000BF00780873A06B31460130A063C3
:1020D000E08F0844E087E08F0028E4D1A06AB0F5E3
:1020E000005F04D12068016841F4805101602046FE
:1020F0004FF4C05100222B46CDF8008001F090FD36
:1021000090B92046802100222B46CDF8008001F0B6
:102110005BFE48B920464FF4C06100222B46CDF843
:10212000008001F07DFD28B1206E40F02000206687
:1021300020202066A06838B9002002902068C1687D
:102140000291806802900298206E002818BF01203A
:10215000002184F85D9084F85C1003B0BDE8F08342
:10216000FEF7BAFEE08F0028B8D0206881688907A2
:10217000F6D5E28FA16B012A08D931F8022BC26093
:10218000A163E08F0238E087ECE700BF09780173B4
:10219000A06B0130A063E08F0138E087E2E700BF69
:1021A0000320D5E7411E0020B0EB116F1CBF0120BA
:1021B00070474EF21002CEF2000251604EF62351EB
:1021C000CEF20001F0230B70072190601160704780
:1021D00090F88410012904BF022070472421C0F820
:1021E000881002681168136823F00103136021F05E
:1021F00000530021416613602022C0F8882080F837
:1022000084100846704700007047000070470000C7
:10221000B0B590F88420012A04BF0220B0BD24226A
:10222000C0F888200268D0F864E0D2F800C01368D3
:10223000BEF1000F23F001031360936823F0606385
:1022400041EA0301916019D09368916848F2886E61
:10225000490FC0F6000E48F290651EF80140C0F626
:102260000005695CC3F34263E400B4FBF1F11EF8BE
:102270000340EB5CE500B5FBF3F301E00121012332
:10228000A0F86A102021A0F86830C2F800C0C0F899
:102290008810002180F884100846B0BDB0B590F8D1
:1022A0008420012A04BF0220B0BD2422C0F8882067
:1022B0000268D0F864E0D2F800C01368BEF1000FE5
:1022C00023F001031360936823F0604341EA0301A4
:1022D000916019D09368916848F2886E490FC0F6F2
:1022E000000E48F290651EF80140C0F60005695CDA
:1022F000C3F34263E400B4FBF1F11EF80340EB5C6E
:10230000E500B5FBF3F301E001210123A0F86A1019
:102310002021A0F86830C2F800C0C0F88810002161
:1023200080F884100846B0BD704700007047000078
:10233000B0B504460068D4F88810D4F88C50826890
:10234000120640F18280212940F07F80206850E809
:10235000020F216820F0800041E80202DAB1206813
:1023600050E8020F216820F0800041E8020292B19B
:10237000206850E8020F216820F0800041E8020246
:102380004AB1206850E8020F216820F0800041E83F
:102390000202002ADAD1E06F40B1FEF7C3FA28B199
:1023A000E06FFEF731FB202800F08980206850E8BC
:1023B000000F216820F0C00041E80002BAB3206895
:1023C00050E8000F216820F0C00041E8000272B31D
:1023D000206850E8000F216820F0C00041E80002AA
:1023E0002AB3206850E8000F216820F0C00041E8BF
:1023F0000002002ADAD11AE0206850E8020F2168B2
:1024000020F4000041E80202DAB1206850E8020F2F
:10241000216820F4000041E8020292B1206850E8EF
:10242000020F216820F4000041E802024AB120684E
:1024300050E8020F216820F4000041E80202002A5F
:10244000DAD12020C4F888002068806840064FF068
:10245000000040F1B280222D18BFB0BD206850E8C6
:10246000020F216820F0400041E80202DAB1206842
:1024700050E8020F216820F0400041E8020292B1CA
:10248000206850E8020F216820F0400041E8020275
:102490004AB1206850E8020F216820F0400041E86E
:1024A0000202002ADAD1D4F8800068B1FEF73AFAC5
:1024B00050B1D4F88000FEF7A7FA202804D11020EC
:1024C000C4F890000320B0BD206850E8000F2168D8
:1024D00020F4907041E80002DAB1206850E8000F63
:1024E000216820F4907041E8000292B1206850E821
:1024F000000F216820F4907041E800024AB1206882
:1025000050E8000F216820F4907041E80002002A92
:10251000DAD14FF6FE70CEF6FF7000BF216851E8A9
:10252000021F2268014042E80213C3B1216851E84A
:10253000021F2268014042E8021383B1216851E87A
:10254000021F2268014042E8021343B1216851E8AA
:10255000021F2268014042E80213002BDED1E06E28
:10256000012824D1206850E8000F216820F01000D5
:1025700041E80002DAB1206850E8000F216820F03D
:10258000100041E8000292B1206850E8000F216875
:1025900020F0100041E800024AB1206850E8000F26
:1025A000216820F0100041E80002002ADAD1202042
:1025B000C4F88C000020E0666067B0BD7047000082
:1025C00070B5016840F62F03CA69044608688E6832
:1025D0001340202B0CD100F0200306F080555B192E
:1025E00017D0616F00297BD02046BDE870400847B6
:1025F00040F60F031A420CD00123C1F2000306EA91
:10260000030C40F22013C0F20043034013EB0C0311
:1026100068D1E36E012B05D112F0100318BF10F042
:1026200010034DD1D3020BD516F4800308D04FF41C
:10263000801220460A62BDE87040FFF777BE00BFF7
:10264000110606D500F0800106F40003C91840F019
:102650003582510640F10E8110F0400100F00A81F0
:10266000206850E8000F216820F0400041E8000297
:10267000DAB1206850E8000F216820F0400041E8FE
:10268000000292B1206850E8000F216820F040005D
:1026900041E800024AB1206850E8000F216820F0AC
:1026A000400041E80002002ADAD120200021C4F8CD
:1026B00088002046A167BDE8704000F0DDBC00BF87
:1026C000102008628868400618D4B4F85C00B4F89A
:1026D0005E10B4F85E20002A18BF884240F00682DF
:1026E00070BD00BFD30718BF10F4807340F0CE80D8
:1026F000930706F0010E00F1D580DEE0D4F88000EB
:10270000006841688AB2002AEAD0B4F85C309A4284
:10271000E6D2A4F85E100068800600F19E80206872
:1027200050E8000F216820F4807041E80002DAB11F
:10273000206850E8000F216820F4807041E8000212
:1027400092B1206850E8000F216820F4807041E8C1
:1027500000024AB1206850E8000F216820F4807020
:1027600041E80002002ADAD1206850E8020F21680F
:1027700020F0010041E80202BAB3206850E8020FDD
:10278000216820F0010041E8020272B3206850E89D
:10279000020F216820F0010041E802022AB32068FC
:1027A00050E8020F216820F0010041E80202002AEF
:1027B000DAD11AE0206850E8020F216820F04000CA
:1027C00041E80202DAB1206850E8020F216820F0E7
:1027D000400041E8020292B1206850E8020F2168EF
:1027E00020F0400041E802024AB1206850E8020FA0
:1027F000216820F0400041E80202002ADAD12020BE
:10280000C4F88C000020E066206850E8000F2168C2
:1028100020F0100041E80002DAB1206850E8000F13
:10282000216820F0100041E8000292B1206850E8D1
:10283000000F216820F0100041E800024AB1206832
:1028400050E8000F216820F0100041E80002002A43
:10285000DAD1D4F88000FEF765F802202067B4F8DA
:102860005C00B4F85E10401A81B22046BDE87040AA
:10287000FFF7CABC110240F1278110F0804100F03F
:1028800023812046BDE87040FFF74EBD01230B6257
:10289000D4F8903043F00103C4F89030930706F069
:1028A000010E0AD5BEF1000F07D002230B62D4F847
:1028B000903043F00403C4F8903053070AD5BEF1BA
:1028C000000F07D004230B62D4F8903043F00203CA
:1028D000C4F8903013070CD500F0200353EA0C0322
:1028E00007D008230B62D4F8903043F00803C4F8F3
:1028F000903013050BD510F0806308D04FF40063BF
:102900000B62D4F8903043F02003C4F89030D4F830
:102910009030002B3FF4E4AE12F020021EBF00F016
:10292000200006F0805210EB020040F06181D4F8E4
:102930009000896800F0280001F04001401807D19C
:102940002046FFF73BFE0020C4F8900070BD00BF9A
:10295000206850E8000F216820F4907041E80002E0
:10296000DAB1206850E8000F216820F4907041E847
:10297000000292B1206850E8000F216820F49070A6
:1029800041E800024AB1206850E8000F216820F4B5
:10299000907041E80002002ADAD14FF6FE70CEF6C0
:1029A000FF7000BF216851E8021F2268014042E821
:1029B0000213C3B1216851E8021F2268014042E8B6
:1029C000021383B1216851E8021F2268014042E8E6
:1029D000021343B1216851E8021F2268014042E816
:1029E0000213002BDED1E06E012824D1206850E8CC
:1029F000000F216820F0100041E80002DAB12068E1
:102A000050E8000F216820F0100041E8000292B168
:102A1000206850E8000F216820F0100041E8000213
:102A20004AB1206850E8000F216820F0100041E80A
:102A30000002002ADAD12020C4F88C000020E066D1
:102A400021686067886840064AD500BF206850E862
:102A5000020F216820F0400041E80202DAB120684C
:102A600050E8020F216820F0400041E8020292B1D4
:102A7000206850E8020F216820F0400041E802027F
:102A80004AB1206850E8020F216820F0400041E878
:102A90000202002ADAD1D4F8800008B343F6DD71CF
:102AA000C0F600018163FDF777FF00283FF418AE00
:102AB000D4F88000816BBDE870400847A16F002901
:102AC0007FF492AD0CE600BFD1017FF509AEB0F105
:102AD000FF3FC8BF70BD2046BDE87040FFF796BB02
:102AE0002046BDE87040FFF769BD00BF401A00BF37
:102AF000216851E8001F226821F4907142E8001318
:102B0000DBB1216851E8001F226821F4907142E88E
:102B1000001393B1216851E8001F226821F49071DD
:102B200042E800134BB1216851E8001F226821F4EC
:102B3000907142E80013002BDAD14FF6FE71CEF609
:102B4000FF7100BF226852E8022F23680A4043E861
:102B50000226C6B1226852E8022F23680A4043E8E1
:102B6000022686B1226852E8022F23680A4043E811
:102B7000022646B1226852E8022F23680A4043E841
:102B80000226002EDED12021C4F88C100021E1663F
:102B9000616700BF216851E8001F226821F0100121
:102BA00042E80013DBB1216851E8001F226821F0E0
:102BB000100142E8001393B1216851E8001F226818
:102BC00021F0100142E800134BB1216851E8001FC9
:102BD000226821F0100142E80013002BDAD1022212
:102BE00081B220462267BDE87040FFF70DBB00BFF1
:102BF000626F002A3FF49BAE20469047216896E61C
:102C0000B0B582B0B0B10446D0F8880028B9002031
:102C100084F88400204600F059F82420C4F8880085
:102C20002068016821F001010160204601F08CFB61
:102C3000012803D1012002B0B0BD00BFA06A10B1CD
:102C4000204601F057F92068416821F49041416025
:102C5000816821F02A018160016841F00101016071
:102C60000020C4F89000FEF737F9216805460A688D
:102C700012070CD56FF07E4C20464FF40011002255
:102C80002B46CDF800C001F091FC78B921680868A6
:102C900040070FD56FF07E4C20464FF48001002294
:102CA0002B46CDF800C001F081FC18B1032002B022
:102CB000B0BD00BF2020C4F88800C4F88C000020FC
:102CC000E066206784F8840002B0B0BD2DE9F041D1
:102CD00094B0044601A808303021FDF781FA20683D
:102CE00043F60001C4F20101884203D014B0BDE8EC
:102CF000F08100BF012001900120C0F2030002908A
:102D000001A8FEF79BF9002818BFFDF705FE4C202F
:102D1000C5F60000416940F2080841F48041416174
:102D20004169002601F480410F910F990168C4F2B6
:102D3000020841F00201016000680FA900F00200E2
:102D40000F900F98C0200F90022010900720139032
:102D500040F20040C4F60000CDE91166FDF7E0FF47
:102D600040F25445C2F200051120C5E900804FF43D
:102D70000050802728622846C5E90266C5E9047626
:102D8000C5E90666FDF7A2FE002818BFFDF7C4FDE1
:102D9000C4F88050AC6240F2B44508F11400C2F2AD
:102DA00000051221102285E8C7002846C5E90566FE
:102DB000C5E90766FDF78AFE002818BFFDF7ACFDE0
:102DC000242000210022E567AC62FEF7E9F8242008
:102DD000FEF7D2F814B0BDE8F0810000B0B50446AB
:102DE000D0F88C0020281CBF0220B0BD96460A46B1
:102DF00000294FF0010018BFBEF1000F00D1B0BD97
:102E00004FF0000CC4F86CC0216848F20000C4F216
:102E10000000814227D04868000224D5206850E88D
:102E2000000F216840F0806041E80003DBB12068BA
:102E300050E8000F216840F0806041E8000393B142
:102E4000206850E8000F216840F0806041E80003EE
:102E50004BB1206850E8000F216840F0806041E8E5
:102E60000003002BDAD12220A265A4F85CE0C4F8AC
:102E700090C0C4F88C00D4F88000F8B144F2C911B5
:102E8000C0F6000144F22D3343F6ED7C00F12C072F
:102E9000C0F60003C0F6000C87E80A102168002580
:102EA000243173468563FDF7AFFE38B11020C4F8B6
:102EB00090002020C4F88C000120B0BD206928B308
:102EC000206850E8000F216840F4807041E800025B
:102ED000E2B1206850E8000F216840F4807041E8BA
:102EE00000029AB1206850E8000F216840F4807019
:102EF00041E8000252B1206850E8000F216840F418
:102F0000807041E80002002ADAD100BF206850E852
:102F1000020F216840F0010041E80202E2B120689E
:102F200050E8020F216840F0010041E802029AB126
:102F3000206850E8020F216840F0010041E80202D9
:102F400052B1206850E8020F216840F0010041E8CA
:102F50000202002ADAD100BF206850E8020F21687F
:102F600040F0400041E80202DAB1206850E8020F68
:102F7000216840F0400041E8020292B1206850E828
:102F8000020F216840F0400041E802024AB1206887
:102F900050E8020F216840F0400041E80202002A98
:102FA000DAD10020B0BD000070470000704700007B
:102FB0002DE9F04182B00446D0F8880020281FD1C6
:102FC0000D4600294FF0010052D01746002A4FD07D
:102FD0000020C4F8900021209846C4F88800FDF72E
:102FE0007BFFA4F85470A4F85670A1680746B1F5A9
:102FF000805F01D1206938B12E46002512E000BF64
:10300000022002B0BDE8F08100260BE035F8020B8B
:1030100021686FF35F2088620026B4F856000138FB
:10302000A4F85600B4F8560080B120468021002252
:103030003B46CDF8008001F0B9FA80B9002EE5D00A
:1030400016F8010B21688862E7E700BF204640219F
:1030500000223B46CDF8008001F0A8FA20B1032001
:1030600002B0BDE8F08100BF2020C4F88800002035
:1030700002B0BDE8F081000070470000FEE70000EC
:1030800080B582B04820C5F600000168002241F0FA
:1030900004010160016801F00401009100990168D8
:1030A00041F0010101600068002100F00100019081
:1030B00001980B20FDF774FF0B20FDF75DFF0C203E
:1030C00000210022FDF76CFF0C2002B0BDE880401B
:1030D000FDF752BF2DE9F04387B000264C2005963E
:1030E000C5F60000016840F2004941F002010160AC
:1030F0000168C4F6000901F0020106910699016811
:10310000002241F00101016001684FF4847501F073
:10311000010106910699016841F080010160016892
:1031200001F0800106910699016841F004010160F7
:1031300000684FF4847100F0040006900698484639
:10314000FDF7C4FE4FF09040072100224FF0070822
:10315000FDF7BCFE019501AD012448462946CDE9A5
:1031600002460496FDF7DCFD41F2150001900327AD
:1031700048462946CDE90276FDF7D2FD4FF0904052
:103180002946CDE90184CDE90366FDF7C9FD49F67D
:10319000D870CDE901074FF0904029460396FDF71E
:1031A000BFFD0820CDE9010709F5C0502946039667
:1031B000FDF7B6FD4FF46040CDE9010709F58060E9
:1031C00029460396FDF7ACFD07B0BDE8F08300008B
:1031D000B0B540F2145043F2000EC2F20000C4F247
:1031E000010E4FF482724FF400434FF4E06C002163
:1031F0004FF400741825C0E900E2C0E9023C072240
:103200000823C0E90411C0E90645C0E90811C0E976
:103210000A12C0E90C13FEF7A1FD002808BFB0BDDB
:10322000BDE8B040FDF778BBB0B540F2785043F64A
:103230000001C2F20000C4F2010100230C244FF48B
:10324000E13280E80E00C0E90333C0E90543C0E97C
:103250000733C0E90933FFF7D3FC002818BFFDF797
:103260005BFB40F27850C2F200000021FFF716F835
:10327000002818BFFDF750FB40F27850C2F2000062
:103280000021FEF7C5FF002818BFFDF745FB40F2FF
:103290007855C2F200052846FEF79AFF002818BFAD
:1032A000FDF73AFB2B6840F251011868C2F20001A9
:1032B00040F0100428464FF480621C60BDE8B04026
:1032C000FFF78CBDFEE70000FEE700002DE9F043AC
:1032D0004468012C32DB8368012BB8BFBDE8F08362
:1032E00000226FF0800C4FF0800E03E04468013242
:1032F000A24223DA012BA8BF9442F8DD02F00705B1
:103300004CFA05F82EFA05F9002602E001369E4235
:10331000ECDA47689742F9DD07FB06230768DC17FC
:1033200003EB5473DB10FC5C002944EA090508BF79
:1033300004EA0805FD548368E8E700BFBDE8F083B0
:103340002DE9F04F83B00C9F0192FC88002C00F017
:10335000C7800C9A203BB2F804B0D2F800E0634377
:103360004FEADB054FF0010C5FEA4B7618BF0CEB20
:10337000DB0503FB05E3019F4A424FF0000C5E466C
:1033800000920DE00C9A029FD4885E4672070CF101
:10339000010C18BF0133A44507F1010780F0A0809C
:1033A000002E00F09B80019ADDF800A00CEB0209D2
:1033B0000026029710E000BF002C58BFB9F1000FA3
:1033C00064D500BFB8F1070F06F1010608BF01334D
:1033D0005E45AAF1010AD5D21D7806F0070805FA64
:1033E00008F52D06EED5C568032DEBD87418DFE877
:1033F00005F003051B3700BFDEE700BF002C58BFF8
:10340000B9F1000FDED48768A742DBDD45684D4582
:10341000D8DDB9F1000FD5D0B5EB090ED2D405FB3C
:1034200004E774463DE000BF002C58BFB9F1000F1F
:10343000C8D4D0F804E0A645C4DD85684D45C1DD9B
:103440001AEB0E07BED4B9F1000F18BF002CB9D08B
:10345000B5EB0905B6D4AEEB040405FB0E4720E03E
:10346000002C58BFB9F1000FACD48568A542A9DD86
:10347000D0F804E0CE45A5DD002CA3D01AEB05045E
:103480003FF5A0AF0EFB04974C460AE04568A54205
:103490007FF798AF87684F457FF794AF029A02FB9A
:1034A0000547FA17D0F800B007EB5272D21004F0BB
:1034B00007076FF080051BF8024045FA07FE8025DC
:1034C00025FA07F70D9D2743002D08BF04EA0E07D4
:1034D0000BF802700C9AB2F804B073E7002655E7B7
:1034E00003B0BDE8F08F00002DE9F04F85B00DF17D
:1034F000040C8CE807000220DDF80CA0DDF8048045
:103500005E42A0EB430900240CE000BF4846711C5A
:10351000B145C8BF0E4600EB4101C8BF481C012E93
:1035200081462FDA029FDDF838B004EB0A05B91B9B
:1035300040462A465B46049100F074FA3744404600
:1035400039462A465B4600F06DFAAAEB0405404670
:1035500039462A465B4600F065FA049940462A46F9
:103560005B4600F05FFAA145D0DC013409EB440072
:10357000F44200F10100CAD1B1454FF00001D8BFBB
:103580008946C4E705B0BDE8F08F00002DE9F04F93
:1035900087B006460220C3F10008A0EB43004FF0BD
:1035A000000BCDE901120DE0184608F10101434579
:1035B000C8BF884600EB4101C8BF481CB8F1010FE5
:1035C00080F24681019C029FDDF84090A4EB080543
:1035D0000BEB070A04903046294652464B4600F052
:1035E00021FA44443046214652464B4600F01AFA2E
:1035F000A7EB0B07304621463A464B4600F012FA3D
:10360000304629463A464B4600F00CFA0120A0EB22
:1036100048000128C0F20681614200EB04090A4615
:1036200023460397CDE905B80BE000BF002B58BF38
:10363000BAF1000F4ED501334B45A2F1010280F2E1
:103640007780F568032DF6D8DFE805F0041428022A
:10365000ECE700BF002B58BFBAF1000FEBD4756840
:103660009D42E8DDB7685745E5DD05FB0A3E9C460F
:103670003EE000BF002B58BFBAF1000FDBD4B768A3
:103680009F42D8DD75685545D5DDBAF1000FD2D01F
:10369000B5EB0A0CCFD405FB03CE29E0002B58BFB5
:1036A000BAF1000FC7D475689D42C4DDD6F808C0D2
:1036B000D445C0DD5719BED4BAF1000F18BF002B96
:1036C000B9D0BCEB0A0EB6D4A5EB030C0EFB05CEAD
:1036D0000EE000BFB5689D42ADDDD6F804C0D4450C
:1036E000A9DD002BA7D0AD18A5D40CFB05AED446A0
:1036F0004FEAEE75D6F800B00EEB55754FEAE50EC1
:103700000CF007006FF080071BF80E5047FA00FC22
:10371000802727FA00F0DDF840802843B8F1000F39
:1037200008BF05EA0C000BF80E00DDE905B882E7DA
:10373000DDF80CE00AE000BF002C58BFBEF1000F1E
:103740004CD501344C45A1F101016BDAF268032A32
:10375000F7D8DFE802F00515290300BFECE700BF4A
:10376000002C58BFBEF1000FEBD47268A242E8DD16
:10377000B0687045E5DD02FB0E4223463BE000BF2A
:10378000002C58BFBEF1000FDBD4B068A042D8DDDA
:1037900072687245D5DDBEF1000FD2D0B2EB0E03D8
:1037A000CFD402FB043226E0002C58BFBEF1000F3C
:1037B000C7D47268A242C4DDB3687345C1DD8818FE
:1037C000BFD4BEF1000F18BF002CBAD0B3EB0E0768
:1037D000B7D4131B07FB02320DE000BFB268A24250
:1037E000AFDD73687345ACDD002CAAD05218A8D4A5
:1037F00003FB02E27346D717306802EB5772D21010
:1038000003F007036FF08005875C45FA03FC802511
:1038100025FA03F3109D3B43002D08BF07EA0C0374
:1038200083548EE7049B5B453FF7BEAE0BF1010B63
:10383000C8F1000103EB4B008B4500F101007FF460
:10384000B4AE8B4643454FF00002D8BF1346ACE6FA
:1038500007B0BDE8F08F00002DE9F04F83B08E4631
:103860000C9F8B42B8BF9E46C8BF194602911146B5
:103870009742B8BF3946C8BF3A4602F101090EF176
:10388000010C019149426FF0800A4FF0800B0091CA
:1038900008E000BF02990CF1010C8E450EF1010EFB
:1038A00000F07A80DDE900530BE000BFBEF1000FAD
:1038B00058BF002B4CD500BF01334B45A5F1010586
:1038C000E8DAC468032CF7D8DFE804F0041428020F
:1038D000ECE700BFBEF1000F58BF002BECD44668E8
:1038E0007645E9DD84689C42E6DD06FB03E7764623
:1038F0003DE000BFBEF1000F58BF002BDCD4846850
:103900007445D9DD46689E42D6DD002BD4D0AC1973
:10391000D2D40CFB0657F61A29E000BFBEF1000F07
:1039200058BF002BC8D447687745C5DD84689C42E2
:10393000C2DDB7EB0E0658BF15EB0408BCD4002B54
:10394000BAD0BEF1000FB7D008FB07670FE000BF89
:1039500086687645B0DD47689F42ADDDBEF1000F59
:10396000AAD0B6EB0E04A7D407FB04371E46F917FE
:10397000046807EB5171C91006F00706675C4AFA44
:1039800006F82BFA06F60D9A3E43002A08BF07EA0E
:103990000806665490E700BF03B0BDE8F08F000052
:1039A0002DE9F04F83B00E469F1B0293019048BF54
:1039B0007F4202981546B0420C984FF0FF34C8BFC2
:1039C0000124B0EB05090C984FF0FF3848BFC9F14E
:1039D0000009A842C8BF4FF0010802981946B0423A
:1039E0001DD00C98A8421AD0C9F1000AA7EB090B08
:1039F00001980D9B31462A4600F014F8BAEB4B0FA4
:103A0000DCBF2644ABEB090BB7EB4B0FA4BF45441F
:103A1000BB440298864202D00C988542E8D103B09C
:103A2000BDE8F08F10B5D0F80CC0BCF1030F07D87B
:103A3000DFE80CF002081A32002958BF002A3FD5EF
:103A400010BD00BF002958BF002AF9D484688C42F9
:103A5000F6DD44689442F3DD002AF1D0A21AEFD4D7
:103A600004FB012C2AE000BF002958BF002AE7D43C
:103A7000D0F804C08C45E3DD84689442E0DDBCEB03
:103A8000010EDDD4002A18BF0029D9D0A11AD7D43D
:103A900001FB0CEC71461CE0002958BF002ACFD472
:103AA00084688C42CCDDD0F804C09445C8DD002980
:103AB000C6D0611A48BF10BD0CFB012C114608E0AE
:103AC000D0F804C08C45BBDD84689442B8DD0CFBA3
:103AD000021C4FEAEC72D0F800E00CEB5272D210EC
:103AE00001F007016FF080001EF8024040FA01FC6F
:103AF0008020C8402043002B08BF04EA0C000EF8C9
:103B0000020010BD2DE9F04F81B088460546DDE981
:103B10000A0B894692468B42B8BF9946C8BF984661
:103B2000174608F101064C469042B8BF074600BF51
:103B3000284621463A465B46FFF774FF0134B442FB
:103B4000F6DB0A984C465045C8BF824628462146B7
:103B500052465B46FFF766FF0134B442F6DB0AF1DA
:103B600001063C462846494622465B46FFF75AFF77
:103B70000134B442F6DB00BF284641463A465B4674
:103B8000FFF750FF0137B742F6DB01B0BDE8F08F19
:103B90002DE9F04383B091461A78AAB1DDE90A789D
:103BA0000D4606465C1E00BFD3B2304629464A4643
:103BB0000097CDF80480FFF7C3FBB888A2780544CE
:103BC000002A04F10104EFD103B0BDE8F083000046
:103BD000806870474068704710B54FEAE27E02EB9C
:103BE0005E7E2EF0070E4FF0000CB2EB0E0418BFF5
:103BF0000EF1080280E80E1010BD000081607047D1
:103C0000C1607047CA1701EB527222F007028B1A8B
:103C100018BF02F1080141607047000070470000C2
:103C20002DE9F04F83B00C9D0024994693460E4633
:103C300080468DF80740FDF74FF9281A00EB09057B
:103C4000FDF74AF940F24801C2F200010968232257
:103C50005143090DD8F8007069430291B9683140A9
:103C6000594503D1204603B0BDE8F08F824686F463
:103C7000C06040EA0B00B0FA80F019F101014FEA90
:103C8000501039D0F0B100BF387B8DF807009DF897
:103C90000700FDF721F9A0EB0A00A84266D20298BE
:103CA00002990028A1F101010291D8F80010896859
:103CB00008BF054611F4C06FE6D10024204603B0CA
:103CC000BDE8F08FFDF708F9A0EB0A00A8424DD23D
:103CD000029802990028A1F101010291D8F8001080
:103CE000896808BF054601EA06005845EAD1002464
:103CF000204603B0BDE8F08F002428B3387B8DF850
:103D000007009DF80700B86810F4C06FEFD0387B4B
:103D10008DF807009DF80700B86810F4C06FE6D072
:103D2000387B8DF807009DF80700B86810F4C06F65
:103D3000DDD0387B8DF807009DF80700B86810F4D7
:103D4000C06FDBD18EE700BFB86830405845CED099
:103D5000B86830405845CAD0B86830405845C6D0D9
:103D6000B86830405845EFD17CE700BFD8E9000182
:103D70004268B1F5827F22F0E00242600BD1D8F8B0
:103D80000810B1F5004F02D0B1F5806F03D1016882
:103D900021F040010160D8F82810B1F5005F07D18B
:103DA000016821F400510160016841F40051016093
:103DB000012088F85D00002088F85C00032420467C
:103DC00003B0BDE8F08F00002DE9F04381B0089CFE
:103DD000984615460E468146FDF77EF8201A00EB00
:103DE0000804FDF779F840F24801C2F200010968C1
:103DF000C1F3CB3161430091D9F800108A68324099
:103E0000921BB2FA82F25209AA423DD0074618F13B
:103E1000010031D0FDF760F8C01BA04238D20098F5
:103E200000990028A1F101010091D9F800108968DA
:103E300008BF044601EA0600801BB0FA80F0400982
:103E4000A842E7D120E000BF88683040801BB0FA6C
:103E500080F04009A84217D088683040801BB0FA33
:103E600080F04009A8420FD088683040801BB0FA2B
:103E700080F04009A84207D088683040801BB0FA23
:103E800080F04009A842DFD1002001B0BDE8F083F6
:103E9000D9E900014268B1F5827F22F0E002426078
:103EA0000BD1D9F80810B1F5004F02D0B1F5806FF1
:103EB00003D1016821F040010160D9F82810B1F563
:103EC000005F07D1016821F400510160016841F4ED
:103ED00000510160012089F85D00002089F85C0034
:103EE000032001B0BDE8F08370470000FCF7FABF83
:103EF0007047000080B5816ACA070DD18A0716D4C1
:103F00004A071FD40A0728D4CA0631D48A063AD4ED
:103F10004A0658D542E000BF0268D0F82CC053686A
:103F200023F4003343EA0C0353608A07E8D50268A0
:103F3000D0F830C0536823F4803343EA0C03536055
:103F40004A07DFD50268D0F834C0536823F48023D1
:103F500043EA0C0353600A07D6D50268D0F838C08C
:103F6000536823F4004343EA0C035360CA06CDD5DB
:103F70000268D0F83CC0936823F4805343EA0C03F2
:103F800093608A06C4D50268D0F840C0936823F4D1
:103F9000005343EA0C0393604A0614D50268D0F834
:103FA00044C05368BCF5801F23F4801343EA0C031C
:103FB000536008D1D2F804C0D0F848E02CF4C00314
:103FC00043EA0E035360090658BF80BD0168C06C08
:103FD0004A6822F400221043486080BD806A0021B4
:103FE000A0F85E10A0F85610FEF7E8BA806A0268E2
:103FF000D0F88830D0F88CC09168090653D5212BB1
:1040000051D10021A0F85610016851E8001F026844
:1040100021F0C00142E80013BBB3016851E8001F62
:10402000026821F0C00142E8001373B3016851E84F
:10403000001F026821F0C00142E800132BB30168A1
:1040400051E8001F026821F0C00142E80013002B74
:10405000DAD11AE0016851E8021F026821F4000178
:1040600042E80213DBB1016851E8021F026821F443
:10407000000142E8021393B1016851E8021F02688F
:1040800021F4000142E802134BB1016851E8021F1C
:10409000026821F4000142E80213002BDAD120214A
:1040A000C0F8881002689168490640F18480BCF12C
:1040B000220F40F080800021A0F85E10016851E8D6
:1040C000001F026821F4907142E80013DBB101681F
:1040D00051E8001F026821F4907142E8001393B187
:1040E000016851E8001F026821F4907142E8001352
:1040F0004BB1016851E8001F026821F4907142E859
:104100000013002BDAD14FF6FE7CCEF6FF7C00BF09
:10411000026852E8022F036802EA0C0243E8022117
:10412000D9B1016851E8021F026801EA0C0142E8B6
:10413000021393B1016851E8021F026801EA0C0101
:1041400042E802134BB1016851E8021F026801EA1C
:104150000C0142E80213002BDAD1C16E012924D1EF
:10416000016851E8001F026821F0100142E80013C5
:10417000DBB1016851E8001F026821F0100142E83C
:10418000001393B1016851E8001F026821F010018B
:1041900042E800134BB1016851E8001F026821F0AA
:1041A000100142E80013002BDAD12021C0F88C1056
:1041B0000021C1664167D0F8901041F01001C0F8AD
:1041C0009010FEF7FBB900000168806A0968890653
:1041D00000F1A1800021A0F85E1000BF016851E845
:1041E000001F026821F4807142E80013E3B1016806
:1041F00051E8001F026821F4807142E800139BB16E
:10420000016851E8001F026821F4807142E8001340
:1042100053B1016851E8001F026821F4807142E83F
:104220000013002BDAD100BF016851E8021F0268B9
:1042300021F0010142E80213BBB3016851E8021FFB
:10424000026821F0010142E8021373B3016851E8EA
:10425000021F026821F0010142E802132BB301683A
:1042600051E8021F026821F0010142E80213002B0D
:10427000DAD11AE0016851E8021F026821F040011A
:1042800042E80213DBB1016851E8021F026821F025
:10429000400142E8021393B1016851E8021F02682D
:1042A00021F0400142E802134BB1016851E8021FBE
:1042B000026821F0400142E80213002BDAD12021EC
:1042C000C0F88C10C16E012925D100BF016851E8EA
:1042D000001F026821F0100142E80013DBB1016801
:1042E00051E8001F026821F0100142E8001393B169
:1042F000016851E8001F026821F0100142E8001334
:104300004BB1016851E8001F026821F0100142E83A
:104310000013002BDAD100210167C16E012918BFFB
:10432000FEF742BEB0F85C10FDF76EBF806A012157
:104330000167C16E012918BFFEF738BEB0F85C10E6
:104340004908FDF761BF000070B5054605F1080496
:104350001ECC0068194341EA0403EE69046846F67E
:10436000F311CCF6FF7121401943314301604168DC
:1043700048F2000E21F4405111434160AA69C4F291
:10438000000E70451CBF296A0A4381684FF2FF4343
:10439000C1F2FF13194011438160C16AD5F824C0EE
:1043A00044F2004221F00F01C4F2000241EA0C0184
:1043B0009042C1620ED0704512D043F60001C4F2A3
:1043C0000101884246D18821C5F600010A6873A31D
:1043D0000FE000BF8821C5F6000109688A0804E0E3
:1043E0008821C5F6000109688A0A48F27863C0F698
:1043F000000302F0030153F82120704542F200400F
:10440000C0F2F4002DD0B6F5004F11D1082A4FF0BC
:10441000010100F2BA80DFE802F0056573B86BB8FD
:10442000B8B87100FDF728F8002840F05E8063E01E
:10443000082A4FF0010100F2A880DFE802F0057FB2
:104440008DA685A6A6A68B00FDF716F8002840F0DD
:1044500078807DE01022704542F20040C0F2F40006
:10446000D1D1082A4FF0010100F28F80DFE802F07D
:10447000068D148D0C8D8D8D120000BFFCF7FCFF96
:1044800030B1D5F824C007E0FDF72EF80028F8D1A8
:1044900000217AE04FF4004048F26061C0F600016C
:1044A00031F81C106A68B0FBF1F002EB420188425F
:1044B0004FF0010169D31303984266D8010E000240
:1044C00010EB520041F100010023FBF751FE4FF6C3
:1044D0000052A0F54071C0F20F0291424FD301216A
:1044E00053E000BFFCF7E4FF30B1D5F824C007E08B
:1044F000FCF7FAFF0028F8D1002146E04FF4004015
:1045000048F26061C0F6000131F81C106A68B0FB27
:10451000F1F0510801EB4000B0FBF2F04FF6EF7202
:10452000A0F11001914207D84FF6F0710140C0F39D
:104530004200084423E000BF012126E0FCF7B8FF59
:1045400030B1D5F824C007E0FCF7CEFF0028F8D141
:1045500000211AE04FF4004048F26061C0F600010B
:1045600031F81C104FF6EF72B0FBF1F0696800EB08
:104570005100B0FBF1F0A0F11001914204D829687C
:10458000C860002101E000BF01214FF00110A866C2
:10459000002208466A67AA6770BD00BF01000000DC
:1045A0000400000002000000080000002DE9F041B6
:1045B000044600681546C2690E461140891BB1FACF
:1045C00081F14909A94240F0A080DDF81880B8F1D6
:1045D000000F29D018F1010140F08080C1693140FD
:1045E000891BB1FA81F14909A94240F08E80C16965
:1045F0003140891BB1FA81F14909A94240F0858017
:10460000C1693140891BB1FA81F14909A9427CD1C4
:10461000C1693140891BB1FA81F14909A942DDD054
:104620000020BDE8F08100BFFCF756FC206850E890
:10463000000F216820F4D07041E80002BAB320686E
:1046400050E8000F216820F4D07041E8000272B3F6
:10465000206850E8000F216820F4D07041E8000283
:104660002AB3206850E8000F216820F4D07041E898
:104670000002002ADAD11AE0206850E8020F21680F
:1046800020F0010041E80202DAB1206850E8020F90
:10469000216820F0010041E8020292B1206850E850
:1046A000020F216820F0010041E802024AB12068AF
:1046B00050E8020F216820F0010041E80202002AC0
:1046C000DAD12020C4F8880004F18C002021016098
:1046D000002084F884000320BDE8F0811F4600BF5D
:1046E000FCF7FAFBC01B4045A0D8206801684907C9
:1046F00044BFC1695FEA01510AD4C0693040801BE0
:10470000B0FA80F04009A842EAD00020BDE8F0816C
:104710004FF40061016200BF206850E8000F21687B
:1047200020F4D07041E80002BAB3206850E8000FCE
:10473000216820F4D07041E8000272B3206850E88C
:10474000000F216820F4D07041E800022AB32068ED
:1047500050E8000F216820F4D07041E80002002AE0
:10476000DAD11AE0206850E8020F216820F0010039
:1047700041E80202DAB1206850E8020F216820F017
:10478000010041E8020292B1206850E8020F21685E
:1047900020F0010041E802024AB1206850E8020F0F
:1047A000216820F0010041E80202002ADAD120202D
:1047B000C4F88800C4F88C0004F1900086E700007B
:1047C000B0B540F27854C2F2000443F6000520462A
:1047D000C4F20105FDF7F4FE2068A84218BFB0BD81
:1047E000E869C00600D4B0BD40F278541020C2F28F
:1047F000000428622046FDF79BFD40F25440C2F2BF
:104800000000006840F251414068C2F2000140429D
:1048100008700B7840F25005C2F2000540F25101D9
:10482000002B18BF0123C2F2000120464FF4806222
:104830002B70BDE8B040FEF7D1BA0000FEE70000E3
:1048400080B582B0019040F27850C2F2000001A918
:1048500001224FF6FF73FEF7ABFB019802B080BD5B
:104860002DE9F04F9DB04FF4945000F0CFF9804601
:104870003020039043F23000C3F23A000290FCF77C
:104880003FFB0BAC201D2821FBF7AAFC002540F2C2
:104890000040CDE90955CDE90755CDE90555C5F6E7
:1048A00000000168012262F34A21016000684FF4B0
:1048B000807100F4C0600490049802200B90CDE950
:1048C0001600062019904FF400301A904FF0005057
:1048D0001C904FF000700F9140211B9020461091CA
:1048E0001895FCF77BFE28B1EFF3108072B600BF7D
:1048F000FEE700BF4F2005900320CDE9060505A87F
:104900000221CDE908550A95FCF7A2FC20B1EFF38E
:10491000108072B6FEE700BFFEF7DCFBFEF7B0FBCF
:10492000FEF782FCFEF754FC48F29861C0F60001E5
:104930000BA8FBF70BFD002840F08880DDE90F2372
:1049400005AD28464146FFF747F9284601210127D2
:10495000FEF7BCFC22200090284600210A2280237A
:104960000197FEF779FF40F23804C2F2000493A3E6
:10497000284600210E2200940197FFF709F993A31E
:1049800028460021222200940197FFF701F96E24A6
:10499000284610213C22382300940197FFF7B2F8F3
:1049A000284610213C22382300940197FEF7F8FF97
:1049B000284638213C22102300940197FEF7F0FF8F
:1049C000284678215A221E230097FEF78DFDB42039
:1049D000009028461021822238230197FEF73CFFE1
:1049E00028467821A0221E230097FEF7CFFD2846F7
:1049F000FFF7F0F804462846FFF7EAF800940BACFE
:104A0000074620464146002200230197FBF74CFE53
:104A10002046FBF76DFC20464FF4FA61FBF764FC7F
:104A20002046FF21FBF728FC2046FBF761FC2046CF
:104A3000FF21FBF721FC2046FBF75AFC48F2B66148
:104A4000C0F600012046FBF781FC58B148F2D46063
:104A5000C0F6000000F010F94FF0FF301DB0BDE8C7
:104A6000F08F00BFDDE90F0747F2A034C0F6000465
:104A70000BAD009028462146002200230197FBF74A
:104A800013FE2846FBF734FCDDE90F0721460090B2
:104A90002846002200230197FBF706FE2846FBF775
:104AA00027FCFCF719FA83464FF0300905AC4FF0AC
:104AB000010A00BF49A000F0DFF84FF47A70FCF75C
:104AC0001BF9FCF709FA44F6D351A0EB0B00C1F235
:104AD0006201A0FB01124BF27321C4F2E751A0FB6B
:104AE000011391099A0B41F68553C6F6D973A0FBC1
:104AF00003034CF6CD40CCF6CC40A2FB000748F6B1
:104B00008900C8F68800A1FB000609EB93408DF8E8
:104B10000800F80800EB8000A2EB400040F03000F5
:104B20008DF8090070090001A0EB5610A1EB800080
:104B3000C1B2CD225143CA0A49EAD1218DF80B10E6
:104B400002EB8201A0EB410040F030008DF80C0038
:104B500020462021FFF756F820466021FFF74EF847
:104B600020460121FFF74CF820460121FEF7AEFB5D
:104B700040F24000C2F200000090204600210422D2
:104B800002ABCDF804A0FFF703F82046FFF722F8A8
:104B900007462046FFF71CF80646284641465022A5
:104BA000482300970196FBF77FFD2846FBF7A0FB03
:104BB00028464FF4FA71FBF797FB7BE748656C6C6E
:104BC0006F20776F726C642100000000652D5061CA
:104BD0007065722044656D6F0000000068656C6C44
:104BE0006F20776F726C640D0000000002E008C84F
:104BF000121F08C1002AFAD170477047002001E057
:104C000001C1121F002AFBD170470000F0B50B3024
:104C1000154D20F007010024144A0FE003688B4271
:104C20000BD38B4205D95E1A43184768C3E9006766
:104C300000E04368136002C004E0021D1068002811
:104C4000ECD12046002802D1286808B10020F0BD30
:104C5000064A07481060074A121A22F00702C0E904
:104C6000002401202860D7E708000020040000206D
:104C70003C0600203808002010B5044601E0FFF78C
:104C8000DFFD14F8010B04490028F8D1BDE81040FD
:104C90000A20FFF7D5BD0000000000200000000042
:104CA00001000000020000000100000003000000FD
:104CB00005000000010000000100000006000000E7
:104CC0000A000000200000000200000004000000B4
:104CD00008000000100000004000000080000000FC
:104CE00000010000000200000000000000000000C1
:104CF00000000000000000000100000002000000B1
:104D0000030000000400000000000000000000009C
:104D10000000000000000000000000000000000093
:104D2000000000000000000000000C000C000C005F
:104D30000C000C000C000C000C0000000C0000002B
:104D40000000000000000000000000001DC01DC0A9
:104D500008800880088000000000000000000000BB
:104D6000000000000000000000000D800D800D809C
:104D70000D803FC01B003FC01B001B001B001B0021
:104D8000000000000000000004001F80318031801E
:104D900038001E000F000380318031803F00040086
:104DA000040000000000000000001800240024009F
:104DB00018C007801E0031800240024001800000C0
:104DC0000000000000000000000000000F001800BC
:104DD000180018000C001D80370033001D800000F3
:104DE00000000000000000000000000007000700B5
:104DF00002000200020000000000000000000000AD
:104E00000000000000000000000003000300060096
:104E10000E000C000C000C000C000E00060003003D
:104E200003000000000000000000180018000C0043
:104E30000600060006000600060006000C001C0026
:104E400018000000000000000000060006003FC03F
:104E50003FC00F001F80198000000000000000000C
:104E6000000000000000000000000000000004003E
:104E7000040004003F80040004000400000000005F
:104E80000000000000000000000000000000000022
:104E900000000000000000000000060004000C00FC
:104EA00008000800000000000000000000000000F2
:104EB000000000003F800000000000000000000033
:104EC00000000000000000000000000000000000E2
:104ED000000000000000000000000C000C000000BA
:104EE000000000000000000000C000C00180018040
:104EF0000300030006000C000C001800180030002E
:104F0000300000000000000000000E001B00318097
:104F1000318031803180318031801B000E000000F3
:104F20000000000000000000000006003E00060037
:104F30000600060006000600060006003FC000004E
:104F4000000000000000000000000F001980318008
:104F50003180030006000C00180030003F80000084
:104F6000000000000000000000003F0061800180A0
:104F700003001F0003800180018061803F0000006A
:104F800000000000000000000000070007000F0004
:104F90000B001B00130033003F8003000F80000054
:104FA000000000000000000000001F801800180032
:104FB00018001F0011800180018021801F00000067
:104FC0000000000000000000000007801C00180026
:104FD0003000370039803180318019800F000000A7
:104FE000000000000000000000007F0043000300FC
:104FF00006000600060006000C000C000C00000075
:10500000000000000000000000001F00318031801F
:1050100031801F0031803180318031801F000000DD
:10502000000000000000000000001E00330031807E
:10503000318033801D800180030007003C000000A8
:105040000000000000000000000000000000000060
:105050000C000C000000000000000C000C00000020
:105060000000000000000000000000000000000040
:105070000300030000000000000006000400080018
:1050800008000000000000000000000000C0030055
:1050900004001800600018000400030000C00000B5
:1050A0000000000000000000000000000000000000
:1050B00000007FC000007FC0000000000000000072
:1050C0000000000000000000000000006000180068
:1050D0000400030000C0030004001800600000008A
:1050E0000000000000000000000000001F003180F0
:1050F0003180018007000C000C0000000C00000053
:10510000000000000000000000000E00110021005F
:1051100021002700290029002700200011000E008F
:105120000000000000000000000000003F000F0031
:105130000900198019801F8030C030C079E000005C
:105140000000000000000000000000007F0031802F
:10515000318031803F003180318031807F0000001C
:105160000000000000000000000000001F4030C0F0
:105170006040600060006000604030801F00000000
:105180000000000000000000000000007F003180EF
:1051900030C030C030C030C030C031807F0000002F
:1051A0000000000000000000000000007F80308050
:1051B000308032003E003200308030807F8000003E
:1051C0000000000000000000000000007FC0304030
:1051D000304032003E003200300030007C000000E1
:1051E0000000000000000000000000001E80318070
:1051F00060806000600067C0618031801F00000037
:105200000000000000000000000000007BC03180B2
:10521000318031803F803180318031807BC000001F
:105220000000000000000000000000003FC0060079
:105230000600060006000600060006003FC000004B
:105240000000000000000000000000001FC003007C
:105250000300030003006300630063003E000000DE
:105260000000000000000000000000007BC0318052
:10527000330036003C003E003300318079C000002E
:105280000000000000000000000000007E00180088
:105290001800180018001840184018407FC000007F
:1052A000000000000000000000000000E0E060C01E
:1052B00071C07BC06AC06EC064C060C0FBE000000B
:1052C00000000000000000000000000073C03180FA
:1052D00039803D803580378033803180798000008F
:1052E0000000000000000000000000001F003180EE
:1052F00060C060C060C060C060C031801F0000003E
:105300000000000000000000000000007F0031806D
:105310003180318031803F00300030007E0000005D
:105320000000000000000000000000001F003180AD
:1053300060C060C060C060C060C031801F000CC031
:105340001F80000000000000000000007F0031808E
:10535000318031803E003300318031807CE00000BC
:105360000000000000000000000000001F803180ED
:10537000318038001F000380318031803F00000001
:105380000000000000000000000000007F804C8052
:105390004C804C800C000C000C000C003F00000006
:1053A0000000000000000000000000007BC0318011
:1053B0003180318031803180318031801F000000A8
:1053C0000000000000000000000000007BC03180F1
:1053D00031801B001B001B000A000E000E000000A5
:1053E000000000000000000000000000FBE060C0C2
:1053F00064C06EC06EC02A803B803B80318000005C
:105400000000000000000000000000007BC03180B0
:105410001B000E000E000E001B0031807BC0000040
:1054200000000000000000000000000079E030C033
:1054300019800F0006000600060006001F8000000D
:105440000000000000000000000000003F802180FC
:105450002300060004000C00188030803F8000000C
:1054600000000000000000000000078006000600A9
:1054700006000600060006000600060006000600FC
:105480000780000000000000300030001800180005
:105490000C000C000600030003000180018000C026
:1054A00000C000000000000000001E000600060012
:1054B00006000600060006000600060006000600BC
:1054C0001E0000000000000004000A000A00110095
:1054D000208020800000000000000000000000008C
:1054E00000000000000000000000000000000000BC
:1054F00000000000000000000000000000000000AC
:10550000000000000000FFE00800040002000000AE
:10551000000000000000000000000000000000008B
:10552000000000000000000000000000000000007B
:105530001F00018001801F80318033801DC000006A
:10554000000000000000000000007000300030008B
:105550003700398030C030C030C03980770000005B
:10556000000000000000000000000000000000003B
:105570001E80318060806000608031801F000000EC
:105580000000000000000000000003800180018096
:105590001D80338061806180618033801DC0000088
:1055A00000000000000000000000000000000000FB
:1055B0001F00318060C07FC0600030C01F800000CD
:1055C0000000000000000000000007E00C000C00DC
:1055D0003F800C000C000C000C000C003F80000011
:1055E00000000000000000000000000000000000BB
:1055F0001DC0338061806180618033801D800180A7
:1056000001801F000000000000007000300030002A
:105610003700398031803180318031807BC000009B
:10562000000000000000000000000600060000006E
:105630001E00060006000600060006003FC000002F
:10564000000000000000000000000600060000004E
:105650003F000300030003000300030003000300F6
:1056600003003E0000000000000070003000300029
:10567000378036003C003C003600330077C0000025
:10568000000000000000000000001E0006000600F0
:105690000600060006000600060006003FC00000E7
:1056A00000000000000000000000000000000000FA
:1056B0007F8036C036C036C036C036C076E00000C7
:1056C00000000000000000000000000000000000DA
:1056D0007700398031803180318031807BC000009B
:1056E00000000000000000000000000000000000BA
:1056F0001F00318060C060C060C031801F000000AA
:105700000000000000000000000000000000000099
:105710007700398030C030C030C039803700300069
:1057200030007C00000000000000000000000000CD
:105730001DC0338061806180618033801D80018065
:10574000018007C000000000000000000000000011
:105750007B801CC018001800180018007F00000093
:105760000000000000000000000000000000000039
:105770001F8031803C001F00038031803F0000000B
:1057800000000000000000000000180018001800D1
:105790007F00180018001800180018800F00000083
:1057A00000000000000000000000000000000000F9
:1057B0007380318031803180318033801DC00000A2
:1057C00000000000000000000000000000000000D9
:1057D0007BC0318031801B001B000E000E000000DA
:1057E00000000000000000000000000000000000B9
:1057F000F1E060C064C06EC03B803B80318000003F
:105800000000000000000000000000000000000098
:105810007BC01B000E000E000E001B007BC00000B2
:105820000000000000000000000000000000000078
:1058300079E030C0198019800B000F0006000600C7
:105840000C003E000000000000000000000000000E
:105850003F80218003000E00180030803F80000050
:105860000000000000000000000006000C000C001A
:105870000C000C000C0018000C000C000C000C00BC
:105880000600000000000000000006000600060000
:1058900006000600060006000600060006000600D8
:1058A000060000000000000000000C0006000600DA
:1058B00006000600060003000600060006000600BB
:1058C0000C000000000000000000000000000000CC
:1058D0000000180024800300000000000000000009
:1058E00000000000000000000000000000000000B8
:1058F00000000000000000000000000000000000A8
:105900000000000000000000000000000000000097
:105910000000000000000000000000000000000087
:105920000000000000000000000000000000000077
:1059300000000000000003800003800003800003DB
:105940008000038000038000038000038000038048
:1059500000010000010000000000000000038000C2
:1059600003800000000000000000000000000000B4
:105970000000000000000000000000000000000027
:10598000000E70000E70000E700004200004200055
:1059900004200004200000000000000000000000BF
:1059A00000000000000000000000000000000000F7
:1059B00000000000000000000000000000000000E7
:1059C000000000000000066000066000066000069F
:1059D00060000660003FF8003FF8000660000CC061
:1059E000003FF8003FF8000CC0000CC0000CC000E5
:1059F0000CC0000CC000000000000000000000000F
:105A00000000000000000000000000018000018094
:105A10000007B0000FF0001870001870001C0000A4
:105A20000F800007E00000F0001830001C30001C60
:105A300070001FE0001BC000018000018000018099
:105A400000018000000000000000000000000000D5
:105A50000000000000000780000FC0001CE00018DC
:105A600060001860001CE0000FF80007E0001FF065
:105A70000007380006180006180007380003F00079
:105A800001E0000000000000000000000000000035
:105A90000000000000000000000000000000000006
:105AA0000000000003F00007F0000C60000C000094
:105AB0000C00000600000700000F9C001DFC0018F1
:105AC000F0001870000FFC0007DC00000000000070
:105AD00000000000000000000000000000000000C6
